{
  "_format": "hh-sol-artifact-1",
  "contractName": "VaultLens",
  "sourceName": "contracts/Lens.sol",
  "abi": [
    {
      "inputs": [
        {
          "internalType": "int256",
          "name": "value",
          "type": "int256"
        }
      ],
      "name": "UFixed6UnderflowError",
      "type": "error"
    },
    {
      "inputs": [
        {
          "components": [
            {
              "internalType": "contract IKeeperFactory",
              "name": "keeperFactory",
              "type": "address"
            },
            {
              "internalType": "uint256",
              "name": "value",
              "type": "uint256"
            },
            {
              "internalType": "bytes32[]",
              "name": "ids",
              "type": "bytes32[]"
            },
            {
              "internalType": "uint256",
              "name": "version",
              "type": "uint256"
            },
            {
              "internalType": "bytes",
              "name": "updateData",
              "type": "bytes"
            }
          ],
          "internalType": "struct PriceCommitData[]",
          "name": "commits",
          "type": "tuple[]"
        },
        {
          "internalType": "contract Lens",
          "name": "marketLens",
          "type": "address"
        },
        {
          "internalType": "contract IVault[]",
          "name": "vaults",
          "type": "address[]"
        },
        {
          "internalType": "address",
          "name": "account",
          "type": "address"
        },
        {
          "internalType": "address",
          "name": "multiInvoker",
          "type": "address"
        }
      ],
      "name": "snapshot",
      "outputs": [
        {
          "components": [
            {
              "internalType": "bytes[]",
              "name": "commitmentStatus",
              "type": "bytes[]"
            },
            {
              "internalType": "bytes[]",
              "name": "updateStatus",
              "type": "bytes[]"
            },
            {
              "internalType": "bytes[]",
              "name": "settleStatus",
              "type": "bytes[]"
            },
            {
              "components": [
                {
                  "components": [
                    {
                      "internalType": "contract IVault",
                      "name": "vault",
                      "type": "address"
                    },
                    {
                      "internalType": "string",
                      "name": "name",
                      "type": "string"
                    },
                    {
                      "components": [
                        {
                          "internalType": "UFixed6",
                          "name": "cap",
                          "type": "uint256"
                        }
                      ],
                      "internalType": "struct VaultParameter",
                      "name": "parameter",
                      "type": "tuple"
                    },
                    {
                      "internalType": "Fixed6",
                      "name": "totalAssets",
                      "type": "int256"
                    },
                    {
                      "internalType": "UFixed6",
                      "name": "totalShares",
                      "type": "uint256"
                    },
                    {
                      "internalType": "uint256",
                      "name": "totalMarkets",
                      "type": "uint256"
                    },
                    {
                      "components": [
                        {
                          "internalType": "contract IMarket",
                          "name": "market",
                          "type": "address"
                        },
                        {
                          "internalType": "UFixed6",
                          "name": "weight",
                          "type": "uint256"
                        },
                        {
                          "internalType": "UFixed6",
                          "name": "leverage",
                          "type": "uint256"
                        }
                      ],
                      "internalType": "struct Registration[]",
                      "name": "registrations",
                      "type": "tuple[]"
                    },
                    {
                      "components": [
                        {
                          "internalType": "uint256",
                          "name": "current",
                          "type": "uint256"
                        },
                        {
                          "internalType": "uint256",
                          "name": "latest",
                          "type": "uint256"
                        },
                        {
                          "internalType": "UFixed6",
                          "name": "shares",
                          "type": "uint256"
                        },
                        {
                          "internalType": "UFixed6",
                          "name": "assets",
                          "type": "uint256"
                        },
                        {
                          "internalType": "UFixed6",
                          "name": "deposit",
                          "type": "uint256"
                        },
                        {
                          "internalType": "UFixed6",
                          "name": "redemption",
                          "type": "uint256"
                        }
                      ],
                      "internalType": "struct Account",
                      "name": "vaultAccount",
                      "type": "tuple"
                    },
                    {
                      "components": [
                        {
                          "internalType": "UFixed6",
                          "name": "deposit",
                          "type": "uint256"
                        },
                        {
                          "internalType": "UFixed6",
                          "name": "redemption",
                          "type": "uint256"
                        },
                        {
                          "internalType": "UFixed6",
                          "name": "shares",
                          "type": "uint256"
                        },
                        {
                          "internalType": "Fixed6",
                          "name": "assets",
                          "type": "int256"
                        },
                        {
                          "internalType": "Fixed6",
                          "name": "tradeFee",
                          "type": "int256"
                        },
                        {
                          "internalType": "UFixed6",
                          "name": "settlementFee",
                          "type": "uint256"
                        },
                        {
                          "internalType": "uint256",
                          "name": "deposits",
                          "type": "uint256"
                        },
                        {
                          "internalType": "uint256",
                          "name": "redemptions",
                          "type": "uint256"
                        },
                        {
                          "internalType": "uint256",
                          "name": "timestamp",
                          "type": "uint256"
                        }
                      ],
                      "internalType": "struct Checkpoint",
                      "name": "latestCheckpoint",
                      "type": "tuple"
                    },
                    {
                      "components": [
                        {
                          "internalType": "UFixed6",
                          "name": "deposit",
                          "type": "uint256"
                        },
                        {
                          "internalType": "UFixed6",
                          "name": "redemption",
                          "type": "uint256"
                        },
                        {
                          "internalType": "UFixed6",
                          "name": "shares",
                          "type": "uint256"
                        },
                        {
                          "internalType": "Fixed6",
                          "name": "assets",
                          "type": "int256"
                        },
                        {
                          "internalType": "Fixed6",
                          "name": "tradeFee",
                          "type": "int256"
                        },
                        {
                          "internalType": "UFixed6",
                          "name": "settlementFee",
                          "type": "uint256"
                        },
                        {
                          "internalType": "uint256",
                          "name": "deposits",
                          "type": "uint256"
                        },
                        {
                          "internalType": "uint256",
                          "name": "redemptions",
                          "type": "uint256"
                        },
                        {
                          "internalType": "uint256",
                          "name": "timestamp",
                          "type": "uint256"
                        }
                      ],
                      "internalType": "struct Checkpoint",
                      "name": "currentCheckpoint",
                      "type": "tuple"
                    },
                    {
                      "internalType": "UFixed6",
                      "name": "totalSettlementFee",
                      "type": "uint256"
                    },
                    {
                      "internalType": "UFixed6",
                      "name": "vaultMinimum",
                      "type": "uint256"
                    },
                    {
                      "internalType": "Fixed6",
                      "name": "totalMarketCollateral",
                      "type": "int256"
                    },
                    {
                      "components": [
                        {
                          "internalType": "contract IMarket",
                          "name": "market",
                          "type": "address"
                        },
                        {
                          "components": [
                            {
                              "internalType": "UFixed6",
                              "name": "fundingFee",
                              "type": "uint256"
                            },
                            {
                              "internalType": "UFixed6",
                              "name": "interestFee",
                              "type": "uint256"
                            },
                            {
                              "internalType": "UFixed6",
                              "name": "positionFee",
                              "type": "uint256"
                            },
                            {
                              "internalType": "UFixed6",
                              "name": "oracleFee",
                              "type": "uint256"
                            },
                            {
                              "internalType": "UFixed6",
                              "name": "riskFee",
                              "type": "uint256"
                            },
                            {
                              "internalType": "uint256",
                              "name": "maxPendingGlobal",
                              "type": "uint256"
                            },
                            {
                              "internalType": "uint256",
                              "name": "maxPendingLocal",
                              "type": "uint256"
                            },
                            {
                              "internalType": "UFixed6",
                              "name": "settlementFee",
                              "type": "uint256"
                            },
                            {
                              "internalType": "bool",
                              "name": "takerCloseAlways",
                              "type": "bool"
                            },
                            {
                              "internalType": "bool",
                              "name": "makerCloseAlways",
                              "type": "bool"
                            },
                            {
                              "internalType": "bool",
                              "name": "closed",
                              "type": "bool"
                            },
                            {
                              "internalType": "bool",
                              "name": "settle",
                              "type": "bool"
                            }
                          ],
                          "internalType": "struct MarketParameter",
                          "name": "parameter",
                          "type": "tuple"
                        },
                        {
                          "components": [
                            {
                              "internalType": "UFixed6",
                              "name": "margin",
                              "type": "uint256"
                            },
                            {
                              "internalType": "UFixed6",
                              "name": "maintenance",
                              "type": "uint256"
                            },
                            {
                              "components": [
                                {
                                  "internalType": "UFixed6",
                                  "name": "linearFee",
                                  "type": "uint256"
                                },
                                {
                                  "internalType": "UFixed6",
                                  "name": "proportionalFee",
                                  "type": "uint256"
                                },
                                {
                                  "internalType": "UFixed6",
                                  "name": "adiabaticFee",
                                  "type": "uint256"
                                },
                                {
                                  "internalType": "UFixed6",
                                  "name": "scale",
                                  "type": "uint256"
                                }
                              ],
                              "internalType": "struct LinearAdiabatic6",
                              "name": "takerFee",
                              "type": "tuple"
                            },
                            {
                              "components": [
                                {
                                  "internalType": "UFixed6",
                                  "name": "linearFee",
                                  "type": "uint256"
                                },
                                {
                                  "internalType": "UFixed6",
                                  "name": "proportionalFee",
                                  "type": "uint256"
                                },
                                {
                                  "internalType": "UFixed6",
                                  "name": "adiabaticFee",
                                  "type": "uint256"
                                },
                                {
                                  "internalType": "UFixed6",
                                  "name": "scale",
                                  "type": "uint256"
                                }
                              ],
                              "internalType": "struct InverseAdiabatic6",
                              "name": "makerFee",
                              "type": "tuple"
                            },
                            {
                              "internalType": "UFixed6",
                              "name": "makerLimit",
                              "type": "uint256"
                            },
                            {
                              "internalType": "UFixed6",
                              "name": "efficiencyLimit",
                              "type": "uint256"
                            },
                            {
                              "internalType": "UFixed6",
                              "name": "liquidationFee",
                              "type": "uint256"
                            },
                            {
                              "components": [
                                {
                                  "internalType": "UFixed6",
                                  "name": "minRate",
                                  "type": "uint256"
                                },
                                {
                                  "internalType": "UFixed6",
                                  "name": "maxRate",
                                  "type": "uint256"
                                },
                                {
                                  "internalType": "UFixed6",
                                  "name": "targetRate",
                                  "type": "uint256"
                                },
                                {
                                  "internalType": "UFixed6",
                                  "name": "targetUtilization",
                                  "type": "uint256"
                                }
                              ],
                              "internalType": "struct UJumpRateUtilizationCurve6",
                              "name": "utilizationCurve",
                              "type": "tuple"
                            },
                            {
                              "components": [
                                {
                                  "internalType": "UFixed6",
                                  "name": "k",
                                  "type": "uint256"
                                },
                                {
                                  "internalType": "Fixed6",
                                  "name": "min",
                                  "type": "int256"
                                },
                                {
                                  "internalType": "Fixed6",
                                  "name": "max",
                                  "type": "int256"
                                }
                              ],
                              "internalType": "struct PController6",
                              "name": "pController",
                              "type": "tuple"
                            },
                            {
                              "internalType": "UFixed6",
                              "name": "minMargin",
                              "type": "uint256"
                            },
                            {
                              "internalType": "UFixed6",
                              "name": "minMaintenance",
                              "type": "uint256"
                            },
                            {
                              "internalType": "uint256",
                              "name": "staleAfter",
                              "type": "uint256"
                            },
                            {
                              "internalType": "bool",
                              "name": "makerReceiveOnly",
                              "type": "bool"
                            }
                          ],
                          "internalType": "struct RiskParameter",
                          "name": "riskParameter",
                          "type": "tuple"
                        },
                        {
                          "components": [
                            {
                              "internalType": "uint256",
                              "name": "currentId",
                              "type": "uint256"
                            },
                            {
                              "internalType": "uint256",
                              "name": "latestId",
                              "type": "uint256"
                            },
                            {
                              "internalType": "UFixed6",
                              "name": "protocolFee",
                              "type": "uint256"
                            },
                            {
                              "internalType": "UFixed6",
                              "name": "oracleFee",
                              "type": "uint256"
                            },
                            {
                              "internalType": "UFixed6",
                              "name": "riskFee",
                              "type": "uint256"
                            },
                            {
                              "internalType": "UFixed6",
                              "name": "donation",
                              "type": "uint256"
                            },
                            {
                              "internalType": "Fixed6",
                              "name": "latestPrice",
                              "type": "int256"
                            },
                            {
                              "internalType": "Fixed6",
                              "name": "exposure",
                              "type": "int256"
                            },
                            {
                              "components": [
                                {
                                  "internalType": "Fixed6",
                                  "name": "_value",
                                  "type": "int256"
                                },
                                {
                                  "internalType": "Fixed6",
                                  "name": "_skew",
                                  "type": "int256"
                                }
                              ],
                              "internalType": "struct PAccumulator6",
                              "name": "pAccumulator",
                              "type": "tuple"
                            }
                          ],
                          "internalType": "struct Global",
                          "name": "global",
                          "type": "tuple"
                        },
                        {
                          "internalType": "address",
                          "name": "oracle",
                          "type": "address"
                        },
                        {
                          "components": [
                            {
                              "internalType": "uint256",
                              "name": "timestamp",
                              "type": "uint256"
                            },
                            {
                              "internalType": "uint256",
                              "name": "orders",
                              "type": "uint256"
                            },
                            {
                              "internalType": "Fixed6",
                              "name": "collateral",
                              "type": "int256"
                            },
                            {
                              "internalType": "UFixed6",
                              "name": "makerPos",
                              "type": "uint256"
                            },
                            {
                              "internalType": "UFixed6",
                              "name": "makerNeg",
                              "type": "uint256"
                            },
                            {
                              "internalType": "UFixed6",
                              "name": "longPos",
                              "type": "uint256"
                            },
                            {
                              "internalType": "UFixed6",
                              "name": "longNeg",
                              "type": "uint256"
                            },
                            {
                              "internalType": "UFixed6",
                              "name": "shortPos",
                              "type": "uint256"
                            },
                            {
                              "internalType": "UFixed6",
                              "name": "shortNeg",
                              "type": "uint256"
                            },
                            {
                              "internalType": "uint256",
                              "name": "protection",
                              "type": "uint256"
                            },
                            {
                              "internalType": "UFixed6",
                              "name": "makerReferral",
                              "type": "uint256"
                            },
                            {
                              "internalType": "UFixed6",
                              "name": "takerReferral",
                              "type": "uint256"
                            }
                          ],
                          "internalType": "struct Order",
                          "name": "pendingOrder",
                          "type": "tuple"
                        },
                        {
                          "components": [
                            {
                              "internalType": "uint256",
                              "name": "timestamp",
                              "type": "uint256"
                            },
                            {
                              "internalType": "UFixed6",
                              "name": "maker",
                              "type": "uint256"
                            },
                            {
                              "internalType": "UFixed6",
                              "name": "long",
                              "type": "uint256"
                            },
                            {
                              "internalType": "UFixed6",
                              "name": "short",
                              "type": "uint256"
                            }
                          ],
                          "internalType": "struct Position",
                          "name": "position",
                          "type": "tuple"
                        },
                        {
                          "components": [
                            {
                              "internalType": "uint256",
                              "name": "timestamp",
                              "type": "uint256"
                            },
                            {
                              "internalType": "UFixed6",
                              "name": "maker",
                              "type": "uint256"
                            },
                            {
                              "internalType": "UFixed6",
                              "name": "long",
                              "type": "uint256"
                            },
                            {
                              "internalType": "UFixed6",
                              "name": "short",
                              "type": "uint256"
                            }
                          ],
                          "internalType": "struct Position",
                          "name": "nextPosition",
                          "type": "tuple"
                        },
                        {
                          "components": [
                            {
                              "internalType": "uint256",
                              "name": "timestamp",
                              "type": "uint256"
                            },
                            {
                              "internalType": "UFixed6",
                              "name": "maker",
                              "type": "uint256"
                            },
                            {
                              "internalType": "UFixed6",
                              "name": "long",
                              "type": "uint256"
                            },
                            {
                              "internalType": "UFixed6",
                              "name": "short",
                              "type": "uint256"
                            }
                          ],
                          "internalType": "struct Position[]",
                          "name": "pendingPositions",
                          "type": "tuple[]"
                        },
                        {
                          "components": [
                            {
                              "internalType": "bool",
                              "name": "valid",
                              "type": "bool"
                            },
                            {
                              "components": [
                                {
                                  "internalType": "Fixed6",
                                  "name": "_value",
                                  "type": "int256"
                                }
                              ],
                              "internalType": "struct Accumulator6",
                              "name": "makerValue",
                              "type": "tuple"
                            },
                            {
                              "components": [
                                {
                                  "internalType": "Fixed6",
                                  "name": "_value",
                                  "type": "int256"
                                }
                              ],
                              "internalType": "struct Accumulator6",
                              "name": "longValue",
                              "type": "tuple"
                            },
                            {
                              "components": [
                                {
                                  "internalType": "Fixed6",
                                  "name": "_value",
                                  "type": "int256"
                                }
                              ],
                              "internalType": "struct Accumulator6",
                              "name": "shortValue",
                              "type": "tuple"
                            },
                            {
                              "components": [
                                {
                                  "internalType": "Fixed6",
                                  "name": "_value",
                                  "type": "int256"
                                }
                              ],
                              "internalType": "struct Accumulator6",
                              "name": "makerLinearFee",
                              "type": "tuple"
                            },
                            {
                              "components": [
                                {
                                  "internalType": "Fixed6",
                                  "name": "_value",
                                  "type": "int256"
                                }
                              ],
                              "internalType": "struct Accumulator6",
                              "name": "makerProportionalFee",
                              "type": "tuple"
                            },
                            {
                              "components": [
                                {
                                  "internalType": "Fixed6",
                                  "name": "_value",
                                  "type": "int256"
                                }
                              ],
                              "internalType": "struct Accumulator6",
                              "name": "takerLinearFee",
                              "type": "tuple"
                            },
                            {
                              "components": [
                                {
                                  "internalType": "Fixed6",
                                  "name": "_value",
                                  "type": "int256"
                                }
                              ],
                              "internalType": "struct Accumulator6",
                              "name": "takerProportionalFee",
                              "type": "tuple"
                            },
                            {
                              "components": [
                                {
                                  "internalType": "Fixed6",
                                  "name": "_value",
                                  "type": "int256"
                                }
                              ],
                              "internalType": "struct Accumulator6",
                              "name": "makerPosFee",
                              "type": "tuple"
                            },
                            {
                              "components": [
                                {
                                  "internalType": "Fixed6",
                                  "name": "_value",
                                  "type": "int256"
                                }
                              ],
                              "internalType": "struct Accumulator6",
                              "name": "makerNegFee",
                              "type": "tuple"
                            },
                            {
                              "components": [
                                {
                                  "internalType": "Fixed6",
                                  "name": "_value",
                                  "type": "int256"
                                }
                              ],
                              "internalType": "struct Accumulator6",
                              "name": "takerPosFee",
                              "type": "tuple"
                            },
                            {
                              "components": [
                                {
                                  "internalType": "Fixed6",
                                  "name": "_value",
                                  "type": "int256"
                                }
                              ],
                              "internalType": "struct Accumulator6",
                              "name": "takerNegFee",
                              "type": "tuple"
                            },
                            {
                              "components": [
                                {
                                  "internalType": "Fixed6",
                                  "name": "_value",
                                  "type": "int256"
                                }
                              ],
                              "internalType": "struct Accumulator6",
                              "name": "settlementFee",
                              "type": "tuple"
                            },
                            {
                              "components": [
                                {
                                  "internalType": "Fixed6",
                                  "name": "_value",
                                  "type": "int256"
                                }
                              ],
                              "internalType": "struct Accumulator6",
                              "name": "liquidationFee",
                              "type": "tuple"
                            }
                          ],
                          "internalType": "struct Version[]",
                          "name": "versions",
                          "type": "tuple[]"
                        },
                        {
                          "components": [
                            {
                              "internalType": "uint256",
                              "name": "timestamp",
                              "type": "uint256"
                            },
                            {
                              "internalType": "Fixed6",
                              "name": "price",
                              "type": "int256"
                            },
                            {
                              "internalType": "bool",
                              "name": "valid",
                              "type": "bool"
                            }
                          ],
                          "internalType": "struct OracleVersion",
                          "name": "latestOracleVersion",
                          "type": "tuple"
                        },
                        {
                          "internalType": "uint256",
                          "name": "currentOracleVersion",
                          "type": "uint256"
                        }
                      ],
                      "internalType": "struct Lens.MarketSnapshot[]",
                      "name": "marketSnapshots",
                      "type": "tuple[]"
                    },
                    {
                      "components": [
                        {
                          "internalType": "contract IMarket",
                          "name": "market",
                          "type": "address"
                        },
                        {
                          "internalType": "address",
                          "name": "account",
                          "type": "address"
                        },
                        {
                          "components": [
                            {
                              "internalType": "uint256",
                              "name": "currentId",
                              "type": "uint256"
                            },
                            {
                              "internalType": "uint256",
                              "name": "latestId",
                              "type": "uint256"
                            },
                            {
                              "internalType": "Fixed6",
                              "name": "collateral",
                              "type": "int256"
                            },
                            {
                              "internalType": "UFixed6",
                              "name": "claimable",
                              "type": "uint256"
                            }
                          ],
                          "internalType": "struct Local",
                          "name": "local",
                          "type": "tuple"
                        },
                        {
                          "components": [
                            {
                              "internalType": "uint256",
                              "name": "timestamp",
                              "type": "uint256"
                            },
                            {
                              "internalType": "uint256",
                              "name": "orders",
                              "type": "uint256"
                            },
                            {
                              "internalType": "Fixed6",
                              "name": "collateral",
                              "type": "int256"
                            },
                            {
                              "internalType": "UFixed6",
                              "name": "makerPos",
                              "type": "uint256"
                            },
                            {
                              "internalType": "UFixed6",
                              "name": "makerNeg",
                              "type": "uint256"
                            },
                            {
                              "internalType": "UFixed6",
                              "name": "longPos",
                              "type": "uint256"
                            },
                            {
                              "internalType": "UFixed6",
                              "name": "longNeg",
                              "type": "uint256"
                            },
                            {
                              "internalType": "UFixed6",
                              "name": "shortPos",
                              "type": "uint256"
                            },
                            {
                              "internalType": "UFixed6",
                              "name": "shortNeg",
                              "type": "uint256"
                            },
                            {
                              "internalType": "uint256",
                              "name": "protection",
                              "type": "uint256"
                            },
                            {
                              "internalType": "UFixed6",
                              "name": "makerReferral",
                              "type": "uint256"
                            },
                            {
                              "internalType": "UFixed6",
                              "name": "takerReferral",
                              "type": "uint256"
                            }
                          ],
                          "internalType": "struct Order",
                          "name": "pendingOrder",
                          "type": "tuple"
                        },
                        {
                          "components": [
                            {
                              "internalType": "uint256",
                              "name": "timestamp",
                              "type": "uint256"
                            },
                            {
                              "internalType": "UFixed6",
                              "name": "maker",
                              "type": "uint256"
                            },
                            {
                              "internalType": "UFixed6",
                              "name": "long",
                              "type": "uint256"
                            },
                            {
                              "internalType": "UFixed6",
                              "name": "short",
                              "type": "uint256"
                            }
                          ],
                          "internalType": "struct Position",
                          "name": "position",
                          "type": "tuple"
                        },
                        {
                          "components": [
                            {
                              "internalType": "uint256",
                              "name": "timestamp",
                              "type": "uint256"
                            },
                            {
                              "internalType": "UFixed6",
                              "name": "maker",
                              "type": "uint256"
                            },
                            {
                              "internalType": "UFixed6",
                              "name": "long",
                              "type": "uint256"
                            },
                            {
                              "internalType": "UFixed6",
                              "name": "short",
                              "type": "uint256"
                            }
                          ],
                          "internalType": "struct Position",
                          "name": "nextPosition",
                          "type": "tuple"
                        },
                        {
                          "components": [
                            {
                              "internalType": "Fixed6",
                              "name": "tradeFee",
                              "type": "int256"
                            },
                            {
                              "internalType": "UFixed6",
                              "name": "settlementFee",
                              "type": "uint256"
                            },
                            {
                              "internalType": "Fixed6",
                              "name": "transfer",
                              "type": "int256"
                            },
                            {
                              "internalType": "Fixed6",
                              "name": "collateral",
                              "type": "int256"
                            }
                          ],
                          "internalType": "struct Checkpoint",
                          "name": "checkpoint",
                          "type": "tuple"
                        },
                        {
                          "components": [
                            {
                              "internalType": "uint256",
                              "name": "timestamp",
                              "type": "uint256"
                            },
                            {
                              "internalType": "UFixed6",
                              "name": "maker",
                              "type": "uint256"
                            },
                            {
                              "internalType": "UFixed6",
                              "name": "long",
                              "type": "uint256"
                            },
                            {
                              "internalType": "UFixed6",
                              "name": "short",
                              "type": "uint256"
                            }
                          ],
                          "internalType": "struct Position[]",
                          "name": "pendingPositions",
                          "type": "tuple[]"
                        },
                        {
                          "components": [
                            {
                              "internalType": "bool",
                              "name": "valid",
                              "type": "bool"
                            },
                            {
                              "components": [
                                {
                                  "internalType": "Fixed6",
                                  "name": "_value",
                                  "type": "int256"
                                }
                              ],
                              "internalType": "struct Accumulator6",
                              "name": "makerValue",
                              "type": "tuple"
                            },
                            {
                              "components": [
                                {
                                  "internalType": "Fixed6",
                                  "name": "_value",
                                  "type": "int256"
                                }
                              ],
                              "internalType": "struct Accumulator6",
                              "name": "longValue",
                              "type": "tuple"
                            },
                            {
                              "components": [
                                {
                                  "internalType": "Fixed6",
                                  "name": "_value",
                                  "type": "int256"
                                }
                              ],
                              "internalType": "struct Accumulator6",
                              "name": "shortValue",
                              "type": "tuple"
                            },
                            {
                              "components": [
                                {
                                  "internalType": "Fixed6",
                                  "name": "_value",
                                  "type": "int256"
                                }
                              ],
                              "internalType": "struct Accumulator6",
                              "name": "makerLinearFee",
                              "type": "tuple"
                            },
                            {
                              "components": [
                                {
                                  "internalType": "Fixed6",
                                  "name": "_value",
                                  "type": "int256"
                                }
                              ],
                              "internalType": "struct Accumulator6",
                              "name": "makerProportionalFee",
                              "type": "tuple"
                            },
                            {
                              "components": [
                                {
                                  "internalType": "Fixed6",
                                  "name": "_value",
                                  "type": "int256"
                                }
                              ],
                              "internalType": "struct Accumulator6",
                              "name": "takerLinearFee",
                              "type": "tuple"
                            },
                            {
                              "components": [
                                {
                                  "internalType": "Fixed6",
                                  "name": "_value",
                                  "type": "int256"
                                }
                              ],
                              "internalType": "struct Accumulator6",
                              "name": "takerProportionalFee",
                              "type": "tuple"
                            },
                            {
                              "components": [
                                {
                                  "internalType": "Fixed6",
                                  "name": "_value",
                                  "type": "int256"
                                }
                              ],
                              "internalType": "struct Accumulator6",
                              "name": "makerPosFee",
                              "type": "tuple"
                            },
                            {
                              "components": [
                                {
                                  "internalType": "Fixed6",
                                  "name": "_value",
                                  "type": "int256"
                                }
                              ],
                              "internalType": "struct Accumulator6",
                              "name": "makerNegFee",
                              "type": "tuple"
                            },
                            {
                              "components": [
                                {
                                  "internalType": "Fixed6",
                                  "name": "_value",
                                  "type": "int256"
                                }
                              ],
                              "internalType": "struct Accumulator6",
                              "name": "takerPosFee",
                              "type": "tuple"
                            },
                            {
                              "components": [
                                {
                                  "internalType": "Fixed6",
                                  "name": "_value",
                                  "type": "int256"
                                }
                              ],
                              "internalType": "struct Accumulator6",
                              "name": "takerNegFee",
                              "type": "tuple"
                            },
                            {
                              "components": [
                                {
                                  "internalType": "Fixed6",
                                  "name": "_value",
                                  "type": "int256"
                                }
                              ],
                              "internalType": "struct Accumulator6",
                              "name": "settlementFee",
                              "type": "tuple"
                            },
                            {
                              "components": [
                                {
                                  "internalType": "Fixed6",
                                  "name": "_value",
                                  "type": "int256"
                                }
                              ],
                              "internalType": "struct Accumulator6",
                              "name": "liquidationFee",
                              "type": "tuple"
                            }
                          ],
                          "internalType": "struct Version[]",
                          "name": "versions",
                          "type": "tuple[]"
                        },
                        {
                          "internalType": "Fixed6[]",
                          "name": "prices",
                          "type": "int256[]"
                        }
                      ],
                      "internalType": "struct Lens.MarketAccountSnapshot[]",
                      "name": "marketVaultSnapshots",
                      "type": "tuple[]"
                    }
                  ],
                  "internalType": "struct VaultLens.VaultSnapshot[]",
                  "name": "vaultSnapshots",
                  "type": "tuple[]"
                },
                {
                  "components": [
                    {
                      "internalType": "contract IVault",
                      "name": "vault",
                      "type": "address"
                    },
                    {
                      "internalType": "address",
                      "name": "account",
                      "type": "address"
                    },
                    {
                      "components": [
                        {
                          "internalType": "uint256",
                          "name": "current",
                          "type": "uint256"
                        },
                        {
                          "internalType": "uint256",
                          "name": "latest",
                          "type": "uint256"
                        },
                        {
                          "internalType": "UFixed6",
                          "name": "shares",
                          "type": "uint256"
                        },
                        {
                          "internalType": "UFixed6",
                          "name": "assets",
                          "type": "uint256"
                        },
                        {
                          "internalType": "UFixed6",
                          "name": "deposit",
                          "type": "uint256"
                        },
                        {
                          "internalType": "UFixed6",
                          "name": "redemption",
                          "type": "uint256"
                        }
                      ],
                      "internalType": "struct Account",
                      "name": "accountData",
                      "type": "tuple"
                    },
                    {
                      "internalType": "UFixed6",
                      "name": "assets",
                      "type": "uint256"
                    },
                    {
                      "internalType": "UFixed6",
                      "name": "redemptionAssets",
                      "type": "uint256"
                    },
                    {
                      "internalType": "bool",
                      "name": "multiInvokerApproved",
                      "type": "bool"
                    }
                  ],
                  "internalType": "struct VaultLens.VaultAccountSnapshot[]",
                  "name": "vaultAccountSnapshots",
                  "type": "tuple[]"
                }
              ],
              "internalType": "struct VaultLens.SnapshotResult",
              "name": "preUpdate",
              "type": "tuple"
            },
            {
              "components": [
                {
                  "components": [
                    {
                      "internalType": "contract IVault",
                      "name": "vault",
                      "type": "address"
                    },
                    {
                      "internalType": "string",
                      "name": "name",
                      "type": "string"
                    },
                    {
                      "components": [
                        {
                          "internalType": "UFixed6",
                          "name": "cap",
                          "type": "uint256"
                        }
                      ],
                      "internalType": "struct VaultParameter",
                      "name": "parameter",
                      "type": "tuple"
                    },
                    {
                      "internalType": "Fixed6",
                      "name": "totalAssets",
                      "type": "int256"
                    },
                    {
                      "internalType": "UFixed6",
                      "name": "totalShares",
                      "type": "uint256"
                    },
                    {
                      "internalType": "uint256",
                      "name": "totalMarkets",
                      "type": "uint256"
                    },
                    {
                      "components": [
                        {
                          "internalType": "contract IMarket",
                          "name": "market",
                          "type": "address"
                        },
                        {
                          "internalType": "UFixed6",
                          "name": "weight",
                          "type": "uint256"
                        },
                        {
                          "internalType": "UFixed6",
                          "name": "leverage",
                          "type": "uint256"
                        }
                      ],
                      "internalType": "struct Registration[]",
                      "name": "registrations",
                      "type": "tuple[]"
                    },
                    {
                      "components": [
                        {
                          "internalType": "uint256",
                          "name": "current",
                          "type": "uint256"
                        },
                        {
                          "internalType": "uint256",
                          "name": "latest",
                          "type": "uint256"
                        },
                        {
                          "internalType": "UFixed6",
                          "name": "shares",
                          "type": "uint256"
                        },
                        {
                          "internalType": "UFixed6",
                          "name": "assets",
                          "type": "uint256"
                        },
                        {
                          "internalType": "UFixed6",
                          "name": "deposit",
                          "type": "uint256"
                        },
                        {
                          "internalType": "UFixed6",
                          "name": "redemption",
                          "type": "uint256"
                        }
                      ],
                      "internalType": "struct Account",
                      "name": "vaultAccount",
                      "type": "tuple"
                    },
                    {
                      "components": [
                        {
                          "internalType": "UFixed6",
                          "name": "deposit",
                          "type": "uint256"
                        },
                        {
                          "internalType": "UFixed6",
                          "name": "redemption",
                          "type": "uint256"
                        },
                        {
                          "internalType": "UFixed6",
                          "name": "shares",
                          "type": "uint256"
                        },
                        {
                          "internalType": "Fixed6",
                          "name": "assets",
                          "type": "int256"
                        },
                        {
                          "internalType": "Fixed6",
                          "name": "tradeFee",
                          "type": "int256"
                        },
                        {
                          "internalType": "UFixed6",
                          "name": "settlementFee",
                          "type": "uint256"
                        },
                        {
                          "internalType": "uint256",
                          "name": "deposits",
                          "type": "uint256"
                        },
                        {
                          "internalType": "uint256",
                          "name": "redemptions",
                          "type": "uint256"
                        },
                        {
                          "internalType": "uint256",
                          "name": "timestamp",
                          "type": "uint256"
                        }
                      ],
                      "internalType": "struct Checkpoint",
                      "name": "latestCheckpoint",
                      "type": "tuple"
                    },
                    {
                      "components": [
                        {
                          "internalType": "UFixed6",
                          "name": "deposit",
                          "type": "uint256"
                        },
                        {
                          "internalType": "UFixed6",
                          "name": "redemption",
                          "type": "uint256"
                        },
                        {
                          "internalType": "UFixed6",
                          "name": "shares",
                          "type": "uint256"
                        },
                        {
                          "internalType": "Fixed6",
                          "name": "assets",
                          "type": "int256"
                        },
                        {
                          "internalType": "Fixed6",
                          "name": "tradeFee",
                          "type": "int256"
                        },
                        {
                          "internalType": "UFixed6",
                          "name": "settlementFee",
                          "type": "uint256"
                        },
                        {
                          "internalType": "uint256",
                          "name": "deposits",
                          "type": "uint256"
                        },
                        {
                          "internalType": "uint256",
                          "name": "redemptions",
                          "type": "uint256"
                        },
                        {
                          "internalType": "uint256",
                          "name": "timestamp",
                          "type": "uint256"
                        }
                      ],
                      "internalType": "struct Checkpoint",
                      "name": "currentCheckpoint",
                      "type": "tuple"
                    },
                    {
                      "internalType": "UFixed6",
                      "name": "totalSettlementFee",
                      "type": "uint256"
                    },
                    {
                      "internalType": "UFixed6",
                      "name": "vaultMinimum",
                      "type": "uint256"
                    },
                    {
                      "internalType": "Fixed6",
                      "name": "totalMarketCollateral",
                      "type": "int256"
                    },
                    {
                      "components": [
                        {
                          "internalType": "contract IMarket",
                          "name": "market",
                          "type": "address"
                        },
                        {
                          "components": [
                            {
                              "internalType": "UFixed6",
                              "name": "fundingFee",
                              "type": "uint256"
                            },
                            {
                              "internalType": "UFixed6",
                              "name": "interestFee",
                              "type": "uint256"
                            },
                            {
                              "internalType": "UFixed6",
                              "name": "positionFee",
                              "type": "uint256"
                            },
                            {
                              "internalType": "UFixed6",
                              "name": "oracleFee",
                              "type": "uint256"
                            },
                            {
                              "internalType": "UFixed6",
                              "name": "riskFee",
                              "type": "uint256"
                            },
                            {
                              "internalType": "uint256",
                              "name": "maxPendingGlobal",
                              "type": "uint256"
                            },
                            {
                              "internalType": "uint256",
                              "name": "maxPendingLocal",
                              "type": "uint256"
                            },
                            {
                              "internalType": "UFixed6",
                              "name": "settlementFee",
                              "type": "uint256"
                            },
                            {
                              "internalType": "bool",
                              "name": "takerCloseAlways",
                              "type": "bool"
                            },
                            {
                              "internalType": "bool",
                              "name": "makerCloseAlways",
                              "type": "bool"
                            },
                            {
                              "internalType": "bool",
                              "name": "closed",
                              "type": "bool"
                            },
                            {
                              "internalType": "bool",
                              "name": "settle",
                              "type": "bool"
                            }
                          ],
                          "internalType": "struct MarketParameter",
                          "name": "parameter",
                          "type": "tuple"
                        },
                        {
                          "components": [
                            {
                              "internalType": "UFixed6",
                              "name": "margin",
                              "type": "uint256"
                            },
                            {
                              "internalType": "UFixed6",
                              "name": "maintenance",
                              "type": "uint256"
                            },
                            {
                              "components": [
                                {
                                  "internalType": "UFixed6",
                                  "name": "linearFee",
                                  "type": "uint256"
                                },
                                {
                                  "internalType": "UFixed6",
                                  "name": "proportionalFee",
                                  "type": "uint256"
                                },
                                {
                                  "internalType": "UFixed6",
                                  "name": "adiabaticFee",
                                  "type": "uint256"
                                },
                                {
                                  "internalType": "UFixed6",
                                  "name": "scale",
                                  "type": "uint256"
                                }
                              ],
                              "internalType": "struct LinearAdiabatic6",
                              "name": "takerFee",
                              "type": "tuple"
                            },
                            {
                              "components": [
                                {
                                  "internalType": "UFixed6",
                                  "name": "linearFee",
                                  "type": "uint256"
                                },
                                {
                                  "internalType": "UFixed6",
                                  "name": "proportionalFee",
                                  "type": "uint256"
                                },
                                {
                                  "internalType": "UFixed6",
                                  "name": "adiabaticFee",
                                  "type": "uint256"
                                },
                                {
                                  "internalType": "UFixed6",
                                  "name": "scale",
                                  "type": "uint256"
                                }
                              ],
                              "internalType": "struct InverseAdiabatic6",
                              "name": "makerFee",
                              "type": "tuple"
                            },
                            {
                              "internalType": "UFixed6",
                              "name": "makerLimit",
                              "type": "uint256"
                            },
                            {
                              "internalType": "UFixed6",
                              "name": "efficiencyLimit",
                              "type": "uint256"
                            },
                            {
                              "internalType": "UFixed6",
                              "name": "liquidationFee",
                              "type": "uint256"
                            },
                            {
                              "components": [
                                {
                                  "internalType": "UFixed6",
                                  "name": "minRate",
                                  "type": "uint256"
                                },
                                {
                                  "internalType": "UFixed6",
                                  "name": "maxRate",
                                  "type": "uint256"
                                },
                                {
                                  "internalType": "UFixed6",
                                  "name": "targetRate",
                                  "type": "uint256"
                                },
                                {
                                  "internalType": "UFixed6",
                                  "name": "targetUtilization",
                                  "type": "uint256"
                                }
                              ],
                              "internalType": "struct UJumpRateUtilizationCurve6",
                              "name": "utilizationCurve",
                              "type": "tuple"
                            },
                            {
                              "components": [
                                {
                                  "internalType": "UFixed6",
                                  "name": "k",
                                  "type": "uint256"
                                },
                                {
                                  "internalType": "Fixed6",
                                  "name": "min",
                                  "type": "int256"
                                },
                                {
                                  "internalType": "Fixed6",
                                  "name": "max",
                                  "type": "int256"
                                }
                              ],
                              "internalType": "struct PController6",
                              "name": "pController",
                              "type": "tuple"
                            },
                            {
                              "internalType": "UFixed6",
                              "name": "minMargin",
                              "type": "uint256"
                            },
                            {
                              "internalType": "UFixed6",
                              "name": "minMaintenance",
                              "type": "uint256"
                            },
                            {
                              "internalType": "uint256",
                              "name": "staleAfter",
                              "type": "uint256"
                            },
                            {
                              "internalType": "bool",
                              "name": "makerReceiveOnly",
                              "type": "bool"
                            }
                          ],
                          "internalType": "struct RiskParameter",
                          "name": "riskParameter",
                          "type": "tuple"
                        },
                        {
                          "components": [
                            {
                              "internalType": "uint256",
                              "name": "currentId",
                              "type": "uint256"
                            },
                            {
                              "internalType": "uint256",
                              "name": "latestId",
                              "type": "uint256"
                            },
                            {
                              "internalType": "UFixed6",
                              "name": "protocolFee",
                              "type": "uint256"
                            },
                            {
                              "internalType": "UFixed6",
                              "name": "oracleFee",
                              "type": "uint256"
                            },
                            {
                              "internalType": "UFixed6",
                              "name": "riskFee",
                              "type": "uint256"
                            },
                            {
                              "internalType": "UFixed6",
                              "name": "donation",
                              "type": "uint256"
                            },
                            {
                              "internalType": "Fixed6",
                              "name": "latestPrice",
                              "type": "int256"
                            },
                            {
                              "internalType": "Fixed6",
                              "name": "exposure",
                              "type": "int256"
                            },
                            {
                              "components": [
                                {
                                  "internalType": "Fixed6",
                                  "name": "_value",
                                  "type": "int256"
                                },
                                {
                                  "internalType": "Fixed6",
                                  "name": "_skew",
                                  "type": "int256"
                                }
                              ],
                              "internalType": "struct PAccumulator6",
                              "name": "pAccumulator",
                              "type": "tuple"
                            }
                          ],
                          "internalType": "struct Global",
                          "name": "global",
                          "type": "tuple"
                        },
                        {
                          "internalType": "address",
                          "name": "oracle",
                          "type": "address"
                        },
                        {
                          "components": [
                            {
                              "internalType": "uint256",
                              "name": "timestamp",
                              "type": "uint256"
                            },
                            {
                              "internalType": "uint256",
                              "name": "orders",
                              "type": "uint256"
                            },
                            {
                              "internalType": "Fixed6",
                              "name": "collateral",
                              "type": "int256"
                            },
                            {
                              "internalType": "UFixed6",
                              "name": "makerPos",
                              "type": "uint256"
                            },
                            {
                              "internalType": "UFixed6",
                              "name": "makerNeg",
                              "type": "uint256"
                            },
                            {
                              "internalType": "UFixed6",
                              "name": "longPos",
                              "type": "uint256"
                            },
                            {
                              "internalType": "UFixed6",
                              "name": "longNeg",
                              "type": "uint256"
                            },
                            {
                              "internalType": "UFixed6",
                              "name": "shortPos",
                              "type": "uint256"
                            },
                            {
                              "internalType": "UFixed6",
                              "name": "shortNeg",
                              "type": "uint256"
                            },
                            {
                              "internalType": "uint256",
                              "name": "protection",
                              "type": "uint256"
                            },
                            {
                              "internalType": "UFixed6",
                              "name": "makerReferral",
                              "type": "uint256"
                            },
                            {
                              "internalType": "UFixed6",
                              "name": "takerReferral",
                              "type": "uint256"
                            }
                          ],
                          "internalType": "struct Order",
                          "name": "pendingOrder",
                          "type": "tuple"
                        },
                        {
                          "components": [
                            {
                              "internalType": "uint256",
                              "name": "timestamp",
                              "type": "uint256"
                            },
                            {
                              "internalType": "UFixed6",
                              "name": "maker",
                              "type": "uint256"
                            },
                            {
                              "internalType": "UFixed6",
                              "name": "long",
                              "type": "uint256"
                            },
                            {
                              "internalType": "UFixed6",
                              "name": "short",
                              "type": "uint256"
                            }
                          ],
                          "internalType": "struct Position",
                          "name": "position",
                          "type": "tuple"
                        },
                        {
                          "components": [
                            {
                              "internalType": "uint256",
                              "name": "timestamp",
                              "type": "uint256"
                            },
                            {
                              "internalType": "UFixed6",
                              "name": "maker",
                              "type": "uint256"
                            },
                            {
                              "internalType": "UFixed6",
                              "name": "long",
                              "type": "uint256"
                            },
                            {
                              "internalType": "UFixed6",
                              "name": "short",
                              "type": "uint256"
                            }
                          ],
                          "internalType": "struct Position",
                          "name": "nextPosition",
                          "type": "tuple"
                        },
                        {
                          "components": [
                            {
                              "internalType": "uint256",
                              "name": "timestamp",
                              "type": "uint256"
                            },
                            {
                              "internalType": "UFixed6",
                              "name": "maker",
                              "type": "uint256"
                            },
                            {
                              "internalType": "UFixed6",
                              "name": "long",
                              "type": "uint256"
                            },
                            {
                              "internalType": "UFixed6",
                              "name": "short",
                              "type": "uint256"
                            }
                          ],
                          "internalType": "struct Position[]",
                          "name": "pendingPositions",
                          "type": "tuple[]"
                        },
                        {
                          "components": [
                            {
                              "internalType": "bool",
                              "name": "valid",
                              "type": "bool"
                            },
                            {
                              "components": [
                                {
                                  "internalType": "Fixed6",
                                  "name": "_value",
                                  "type": "int256"
                                }
                              ],
                              "internalType": "struct Accumulator6",
                              "name": "makerValue",
                              "type": "tuple"
                            },
                            {
                              "components": [
                                {
                                  "internalType": "Fixed6",
                                  "name": "_value",
                                  "type": "int256"
                                }
                              ],
                              "internalType": "struct Accumulator6",
                              "name": "longValue",
                              "type": "tuple"
                            },
                            {
                              "components": [
                                {
                                  "internalType": "Fixed6",
                                  "name": "_value",
                                  "type": "int256"
                                }
                              ],
                              "internalType": "struct Accumulator6",
                              "name": "shortValue",
                              "type": "tuple"
                            },
                            {
                              "components": [
                                {
                                  "internalType": "Fixed6",
                                  "name": "_value",
                                  "type": "int256"
                                }
                              ],
                              "internalType": "struct Accumulator6",
                              "name": "makerLinearFee",
                              "type": "tuple"
                            },
                            {
                              "components": [
                                {
                                  "internalType": "Fixed6",
                                  "name": "_value",
                                  "type": "int256"
                                }
                              ],
                              "internalType": "struct Accumulator6",
                              "name": "makerProportionalFee",
                              "type": "tuple"
                            },
                            {
                              "components": [
                                {
                                  "internalType": "Fixed6",
                                  "name": "_value",
                                  "type": "int256"
                                }
                              ],
                              "internalType": "struct Accumulator6",
                              "name": "takerLinearFee",
                              "type": "tuple"
                            },
                            {
                              "components": [
                                {
                                  "internalType": "Fixed6",
                                  "name": "_value",
                                  "type": "int256"
                                }
                              ],
                              "internalType": "struct Accumulator6",
                              "name": "takerProportionalFee",
                              "type": "tuple"
                            },
                            {
                              "components": [
                                {
                                  "internalType": "Fixed6",
                                  "name": "_value",
                                  "type": "int256"
                                }
                              ],
                              "internalType": "struct Accumulator6",
                              "name": "makerPosFee",
                              "type": "tuple"
                            },
                            {
                              "components": [
                                {
                                  "internalType": "Fixed6",
                                  "name": "_value",
                                  "type": "int256"
                                }
                              ],
                              "internalType": "struct Accumulator6",
                              "name": "makerNegFee",
                              "type": "tuple"
                            },
                            {
                              "components": [
                                {
                                  "internalType": "Fixed6",
                                  "name": "_value",
                                  "type": "int256"
                                }
                              ],
                              "internalType": "struct Accumulator6",
                              "name": "takerPosFee",
                              "type": "tuple"
                            },
                            {
                              "components": [
                                {
                                  "internalType": "Fixed6",
                                  "name": "_value",
                                  "type": "int256"
                                }
                              ],
                              "internalType": "struct Accumulator6",
                              "name": "takerNegFee",
                              "type": "tuple"
                            },
                            {
                              "components": [
                                {
                                  "internalType": "Fixed6",
                                  "name": "_value",
                                  "type": "int256"
                                }
                              ],
                              "internalType": "struct Accumulator6",
                              "name": "settlementFee",
                              "type": "tuple"
                            },
                            {
                              "components": [
                                {
                                  "internalType": "Fixed6",
                                  "name": "_value",
                                  "type": "int256"
                                }
                              ],
                              "internalType": "struct Accumulator6",
                              "name": "liquidationFee",
                              "type": "tuple"
                            }
                          ],
                          "internalType": "struct Version[]",
                          "name": "versions",
                          "type": "tuple[]"
                        },
                        {
                          "components": [
                            {
                              "internalType": "uint256",
                              "name": "timestamp",
                              "type": "uint256"
                            },
                            {
                              "internalType": "Fixed6",
                              "name": "price",
                              "type": "int256"
                            },
                            {
                              "internalType": "bool",
                              "name": "valid",
                              "type": "bool"
                            }
                          ],
                          "internalType": "struct OracleVersion",
                          "name": "latestOracleVersion",
                          "type": "tuple"
                        },
                        {
                          "internalType": "uint256",
                          "name": "currentOracleVersion",
                          "type": "uint256"
                        }
                      ],
                      "internalType": "struct Lens.MarketSnapshot[]",
                      "name": "marketSnapshots",
                      "type": "tuple[]"
                    },
                    {
                      "components": [
                        {
                          "internalType": "contract IMarket",
                          "name": "market",
                          "type": "address"
                        },
                        {
                          "internalType": "address",
                          "name": "account",
                          "type": "address"
                        },
                        {
                          "components": [
                            {
                              "internalType": "uint256",
                              "name": "currentId",
                              "type": "uint256"
                            },
                            {
                              "internalType": "uint256",
                              "name": "latestId",
                              "type": "uint256"
                            },
                            {
                              "internalType": "Fixed6",
                              "name": "collateral",
                              "type": "int256"
                            },
                            {
                              "internalType": "UFixed6",
                              "name": "claimable",
                              "type": "uint256"
                            }
                          ],
                          "internalType": "struct Local",
                          "name": "local",
                          "type": "tuple"
                        },
                        {
                          "components": [
                            {
                              "internalType": "uint256",
                              "name": "timestamp",
                              "type": "uint256"
                            },
                            {
                              "internalType": "uint256",
                              "name": "orders",
                              "type": "uint256"
                            },
                            {
                              "internalType": "Fixed6",
                              "name": "collateral",
                              "type": "int256"
                            },
                            {
                              "internalType": "UFixed6",
                              "name": "makerPos",
                              "type": "uint256"
                            },
                            {
                              "internalType": "UFixed6",
                              "name": "makerNeg",
                              "type": "uint256"
                            },
                            {
                              "internalType": "UFixed6",
                              "name": "longPos",
                              "type": "uint256"
                            },
                            {
                              "internalType": "UFixed6",
                              "name": "longNeg",
                              "type": "uint256"
                            },
                            {
                              "internalType": "UFixed6",
                              "name": "shortPos",
                              "type": "uint256"
                            },
                            {
                              "internalType": "UFixed6",
                              "name": "shortNeg",
                              "type": "uint256"
                            },
                            {
                              "internalType": "uint256",
                              "name": "protection",
                              "type": "uint256"
                            },
                            {
                              "internalType": "UFixed6",
                              "name": "makerReferral",
                              "type": "uint256"
                            },
                            {
                              "internalType": "UFixed6",
                              "name": "takerReferral",
                              "type": "uint256"
                            }
                          ],
                          "internalType": "struct Order",
                          "name": "pendingOrder",
                          "type": "tuple"
                        },
                        {
                          "components": [
                            {
                              "internalType": "uint256",
                              "name": "timestamp",
                              "type": "uint256"
                            },
                            {
                              "internalType": "UFixed6",
                              "name": "maker",
                              "type": "uint256"
                            },
                            {
                              "internalType": "UFixed6",
                              "name": "long",
                              "type": "uint256"
                            },
                            {
                              "internalType": "UFixed6",
                              "name": "short",
                              "type": "uint256"
                            }
                          ],
                          "internalType": "struct Position",
                          "name": "position",
                          "type": "tuple"
                        },
                        {
                          "components": [
                            {
                              "internalType": "uint256",
                              "name": "timestamp",
                              "type": "uint256"
                            },
                            {
                              "internalType": "UFixed6",
                              "name": "maker",
                              "type": "uint256"
                            },
                            {
                              "internalType": "UFixed6",
                              "name": "long",
                              "type": "uint256"
                            },
                            {
                              "internalType": "UFixed6",
                              "name": "short",
                              "type": "uint256"
                            }
                          ],
                          "internalType": "struct Position",
                          "name": "nextPosition",
                          "type": "tuple"
                        },
                        {
                          "components": [
                            {
                              "internalType": "Fixed6",
                              "name": "tradeFee",
                              "type": "int256"
                            },
                            {
                              "internalType": "UFixed6",
                              "name": "settlementFee",
                              "type": "uint256"
                            },
                            {
                              "internalType": "Fixed6",
                              "name": "transfer",
                              "type": "int256"
                            },
                            {
                              "internalType": "Fixed6",
                              "name": "collateral",
                              "type": "int256"
                            }
                          ],
                          "internalType": "struct Checkpoint",
                          "name": "checkpoint",
                          "type": "tuple"
                        },
                        {
                          "components": [
                            {
                              "internalType": "uint256",
                              "name": "timestamp",
                              "type": "uint256"
                            },
                            {
                              "internalType": "UFixed6",
                              "name": "maker",
                              "type": "uint256"
                            },
                            {
                              "internalType": "UFixed6",
                              "name": "long",
                              "type": "uint256"
                            },
                            {
                              "internalType": "UFixed6",
                              "name": "short",
                              "type": "uint256"
                            }
                          ],
                          "internalType": "struct Position[]",
                          "name": "pendingPositions",
                          "type": "tuple[]"
                        },
                        {
                          "components": [
                            {
                              "internalType": "bool",
                              "name": "valid",
                              "type": "bool"
                            },
                            {
                              "components": [
                                {
                                  "internalType": "Fixed6",
                                  "name": "_value",
                                  "type": "int256"
                                }
                              ],
                              "internalType": "struct Accumulator6",
                              "name": "makerValue",
                              "type": "tuple"
                            },
                            {
                              "components": [
                                {
                                  "internalType": "Fixed6",
                                  "name": "_value",
                                  "type": "int256"
                                }
                              ],
                              "internalType": "struct Accumulator6",
                              "name": "longValue",
                              "type": "tuple"
                            },
                            {
                              "components": [
                                {
                                  "internalType": "Fixed6",
                                  "name": "_value",
                                  "type": "int256"
                                }
                              ],
                              "internalType": "struct Accumulator6",
                              "name": "shortValue",
                              "type": "tuple"
                            },
                            {
                              "components": [
                                {
                                  "internalType": "Fixed6",
                                  "name": "_value",
                                  "type": "int256"
                                }
                              ],
                              "internalType": "struct Accumulator6",
                              "name": "makerLinearFee",
                              "type": "tuple"
                            },
                            {
                              "components": [
                                {
                                  "internalType": "Fixed6",
                                  "name": "_value",
                                  "type": "int256"
                                }
                              ],
                              "internalType": "struct Accumulator6",
                              "name": "makerProportionalFee",
                              "type": "tuple"
                            },
                            {
                              "components": [
                                {
                                  "internalType": "Fixed6",
                                  "name": "_value",
                                  "type": "int256"
                                }
                              ],
                              "internalType": "struct Accumulator6",
                              "name": "takerLinearFee",
                              "type": "tuple"
                            },
                            {
                              "components": [
                                {
                                  "internalType": "Fixed6",
                                  "name": "_value",
                                  "type": "int256"
                                }
                              ],
                              "internalType": "struct Accumulator6",
                              "name": "takerProportionalFee",
                              "type": "tuple"
                            },
                            {
                              "components": [
                                {
                                  "internalType": "Fixed6",
                                  "name": "_value",
                                  "type": "int256"
                                }
                              ],
                              "internalType": "struct Accumulator6",
                              "name": "makerPosFee",
                              "type": "tuple"
                            },
                            {
                              "components": [
                                {
                                  "internalType": "Fixed6",
                                  "name": "_value",
                                  "type": "int256"
                                }
                              ],
                              "internalType": "struct Accumulator6",
                              "name": "makerNegFee",
                              "type": "tuple"
                            },
                            {
                              "components": [
                                {
                                  "internalType": "Fixed6",
                                  "name": "_value",
                                  "type": "int256"
                                }
                              ],
                              "internalType": "struct Accumulator6",
                              "name": "takerPosFee",
                              "type": "tuple"
                            },
                            {
                              "components": [
                                {
                                  "internalType": "Fixed6",
                                  "name": "_value",
                                  "type": "int256"
                                }
                              ],
                              "internalType": "struct Accumulator6",
                              "name": "takerNegFee",
                              "type": "tuple"
                            },
                            {
                              "components": [
                                {
                                  "internalType": "Fixed6",
                                  "name": "_value",
                                  "type": "int256"
                                }
                              ],
                              "internalType": "struct Accumulator6",
                              "name": "settlementFee",
                              "type": "tuple"
                            },
                            {
                              "components": [
                                {
                                  "internalType": "Fixed6",
                                  "name": "_value",
                                  "type": "int256"
                                }
                              ],
                              "internalType": "struct Accumulator6",
                              "name": "liquidationFee",
                              "type": "tuple"
                            }
                          ],
                          "internalType": "struct Version[]",
                          "name": "versions",
                          "type": "tuple[]"
                        },
                        {
                          "internalType": "Fixed6[]",
                          "name": "prices",
                          "type": "int256[]"
                        }
                      ],
                      "internalType": "struct Lens.MarketAccountSnapshot[]",
                      "name": "marketVaultSnapshots",
                      "type": "tuple[]"
                    }
                  ],
                  "internalType": "struct VaultLens.VaultSnapshot[]",
                  "name": "vaultSnapshots",
                  "type": "tuple[]"
                },
                {
                  "components": [
                    {
                      "internalType": "contract IVault",
                      "name": "vault",
                      "type": "address"
                    },
                    {
                      "internalType": "address",
                      "name": "account",
                      "type": "address"
                    },
                    {
                      "components": [
                        {
                          "internalType": "uint256",
                          "name": "current",
                          "type": "uint256"
                        },
                        {
                          "internalType": "uint256",
                          "name": "latest",
                          "type": "uint256"
                        },
                        {
                          "internalType": "UFixed6",
                          "name": "shares",
                          "type": "uint256"
                        },
                        {
                          "internalType": "UFixed6",
                          "name": "assets",
                          "type": "uint256"
                        },
                        {
                          "internalType": "UFixed6",
                          "name": "deposit",
                          "type": "uint256"
                        },
                        {
                          "internalType": "UFixed6",
                          "name": "redemption",
                          "type": "uint256"
                        }
                      ],
                      "internalType": "struct Account",
                      "name": "accountData",
                      "type": "tuple"
                    },
                    {
                      "internalType": "UFixed6",
                      "name": "assets",
                      "type": "uint256"
                    },
                    {
                      "internalType": "UFixed6",
                      "name": "redemptionAssets",
                      "type": "uint256"
                    },
                    {
                      "internalType": "bool",
                      "name": "multiInvokerApproved",
                      "type": "bool"
                    }
                  ],
                  "internalType": "struct VaultLens.VaultAccountSnapshot[]",
                  "name": "vaultAccountSnapshots",
                  "type": "tuple[]"
                }
              ],
              "internalType": "struct VaultLens.SnapshotResult",
              "name": "postUpdate",
              "type": "tuple"
            }
          ],
          "internalType": "struct VaultLens.SnapshotReturnValue",
          "name": "result",
          "type": "tuple"
        }
      ],
      "stateMutability": "nonpayable",
      "type": "function"
    },
    {
      "inputs": [
        {
          "internalType": "contract IVault",
          "name": "vault",
          "type": "address"
        },
        {
          "internalType": "contract Lens",
          "name": "marketLens",
          "type": "address"
        },
        {
          "internalType": "bool",
          "name": "postSettle",
          "type": "bool"
        }
      ],
      "name": "snapshotVault",
      "outputs": [
        {
          "components": [
            {
              "internalType": "contract IVault",
              "name": "vault",
              "type": "address"
            },
            {
              "internalType": "string",
              "name": "name",
              "type": "string"
            },
            {
              "components": [
                {
                  "internalType": "UFixed6",
                  "name": "cap",
                  "type": "uint256"
                }
              ],
              "internalType": "struct VaultParameter",
              "name": "parameter",
              "type": "tuple"
            },
            {
              "internalType": "Fixed6",
              "name": "totalAssets",
              "type": "int256"
            },
            {
              "internalType": "UFixed6",
              "name": "totalShares",
              "type": "uint256"
            },
            {
              "internalType": "uint256",
              "name": "totalMarkets",
              "type": "uint256"
            },
            {
              "components": [
                {
                  "internalType": "contract IMarket",
                  "name": "market",
                  "type": "address"
                },
                {
                  "internalType": "UFixed6",
                  "name": "weight",
                  "type": "uint256"
                },
                {
                  "internalType": "UFixed6",
                  "name": "leverage",
                  "type": "uint256"
                }
              ],
              "internalType": "struct Registration[]",
              "name": "registrations",
              "type": "tuple[]"
            },
            {
              "components": [
                {
                  "internalType": "uint256",
                  "name": "current",
                  "type": "uint256"
                },
                {
                  "internalType": "uint256",
                  "name": "latest",
                  "type": "uint256"
                },
                {
                  "internalType": "UFixed6",
                  "name": "shares",
                  "type": "uint256"
                },
                {
                  "internalType": "UFixed6",
                  "name": "assets",
                  "type": "uint256"
                },
                {
                  "internalType": "UFixed6",
                  "name": "deposit",
                  "type": "uint256"
                },
                {
                  "internalType": "UFixed6",
                  "name": "redemption",
                  "type": "uint256"
                }
              ],
              "internalType": "struct Account",
              "name": "vaultAccount",
              "type": "tuple"
            },
            {
              "components": [
                {
                  "internalType": "UFixed6",
                  "name": "deposit",
                  "type": "uint256"
                },
                {
                  "internalType": "UFixed6",
                  "name": "redemption",
                  "type": "uint256"
                },
                {
                  "internalType": "UFixed6",
                  "name": "shares",
                  "type": "uint256"
                },
                {
                  "internalType": "Fixed6",
                  "name": "assets",
                  "type": "int256"
                },
                {
                  "internalType": "Fixed6",
                  "name": "tradeFee",
                  "type": "int256"
                },
                {
                  "internalType": "UFixed6",
                  "name": "settlementFee",
                  "type": "uint256"
                },
                {
                  "internalType": "uint256",
                  "name": "deposits",
                  "type": "uint256"
                },
                {
                  "internalType": "uint256",
                  "name": "redemptions",
                  "type": "uint256"
                },
                {
                  "internalType": "uint256",
                  "name": "timestamp",
                  "type": "uint256"
                }
              ],
              "internalType": "struct Checkpoint",
              "name": "latestCheckpoint",
              "type": "tuple"
            },
            {
              "components": [
                {
                  "internalType": "UFixed6",
                  "name": "deposit",
                  "type": "uint256"
                },
                {
                  "internalType": "UFixed6",
                  "name": "redemption",
                  "type": "uint256"
                },
                {
                  "internalType": "UFixed6",
                  "name": "shares",
                  "type": "uint256"
                },
                {
                  "internalType": "Fixed6",
                  "name": "assets",
                  "type": "int256"
                },
                {
                  "internalType": "Fixed6",
                  "name": "tradeFee",
                  "type": "int256"
                },
                {
                  "internalType": "UFixed6",
                  "name": "settlementFee",
                  "type": "uint256"
                },
                {
                  "internalType": "uint256",
                  "name": "deposits",
                  "type": "uint256"
                },
                {
                  "internalType": "uint256",
                  "name": "redemptions",
                  "type": "uint256"
                },
                {
                  "internalType": "uint256",
                  "name": "timestamp",
                  "type": "uint256"
                }
              ],
              "internalType": "struct Checkpoint",
              "name": "currentCheckpoint",
              "type": "tuple"
            },
            {
              "internalType": "UFixed6",
              "name": "totalSettlementFee",
              "type": "uint256"
            },
            {
              "internalType": "UFixed6",
              "name": "vaultMinimum",
              "type": "uint256"
            },
            {
              "internalType": "Fixed6",
              "name": "totalMarketCollateral",
              "type": "int256"
            },
            {
              "components": [
                {
                  "internalType": "contract IMarket",
                  "name": "market",
                  "type": "address"
                },
                {
                  "components": [
                    {
                      "internalType": "UFixed6",
                      "name": "fundingFee",
                      "type": "uint256"
                    },
                    {
                      "internalType": "UFixed6",
                      "name": "interestFee",
                      "type": "uint256"
                    },
                    {
                      "internalType": "UFixed6",
                      "name": "positionFee",
                      "type": "uint256"
                    },
                    {
                      "internalType": "UFixed6",
                      "name": "oracleFee",
                      "type": "uint256"
                    },
                    {
                      "internalType": "UFixed6",
                      "name": "riskFee",
                      "type": "uint256"
                    },
                    {
                      "internalType": "uint256",
                      "name": "maxPendingGlobal",
                      "type": "uint256"
                    },
                    {
                      "internalType": "uint256",
                      "name": "maxPendingLocal",
                      "type": "uint256"
                    },
                    {
                      "internalType": "UFixed6",
                      "name": "settlementFee",
                      "type": "uint256"
                    },
                    {
                      "internalType": "bool",
                      "name": "takerCloseAlways",
                      "type": "bool"
                    },
                    {
                      "internalType": "bool",
                      "name": "makerCloseAlways",
                      "type": "bool"
                    },
                    {
                      "internalType": "bool",
                      "name": "closed",
                      "type": "bool"
                    },
                    {
                      "internalType": "bool",
                      "name": "settle",
                      "type": "bool"
                    }
                  ],
                  "internalType": "struct MarketParameter",
                  "name": "parameter",
                  "type": "tuple"
                },
                {
                  "components": [
                    {
                      "internalType": "UFixed6",
                      "name": "margin",
                      "type": "uint256"
                    },
                    {
                      "internalType": "UFixed6",
                      "name": "maintenance",
                      "type": "uint256"
                    },
                    {
                      "components": [
                        {
                          "internalType": "UFixed6",
                          "name": "linearFee",
                          "type": "uint256"
                        },
                        {
                          "internalType": "UFixed6",
                          "name": "proportionalFee",
                          "type": "uint256"
                        },
                        {
                          "internalType": "UFixed6",
                          "name": "adiabaticFee",
                          "type": "uint256"
                        },
                        {
                          "internalType": "UFixed6",
                          "name": "scale",
                          "type": "uint256"
                        }
                      ],
                      "internalType": "struct LinearAdiabatic6",
                      "name": "takerFee",
                      "type": "tuple"
                    },
                    {
                      "components": [
                        {
                          "internalType": "UFixed6",
                          "name": "linearFee",
                          "type": "uint256"
                        },
                        {
                          "internalType": "UFixed6",
                          "name": "proportionalFee",
                          "type": "uint256"
                        },
                        {
                          "internalType": "UFixed6",
                          "name": "adiabaticFee",
                          "type": "uint256"
                        },
                        {
                          "internalType": "UFixed6",
                          "name": "scale",
                          "type": "uint256"
                        }
                      ],
                      "internalType": "struct InverseAdiabatic6",
                      "name": "makerFee",
                      "type": "tuple"
                    },
                    {
                      "internalType": "UFixed6",
                      "name": "makerLimit",
                      "type": "uint256"
                    },
                    {
                      "internalType": "UFixed6",
                      "name": "efficiencyLimit",
                      "type": "uint256"
                    },
                    {
                      "internalType": "UFixed6",
                      "name": "liquidationFee",
                      "type": "uint256"
                    },
                    {
                      "components": [
                        {
                          "internalType": "UFixed6",
                          "name": "minRate",
                          "type": "uint256"
                        },
                        {
                          "internalType": "UFixed6",
                          "name": "maxRate",
                          "type": "uint256"
                        },
                        {
                          "internalType": "UFixed6",
                          "name": "targetRate",
                          "type": "uint256"
                        },
                        {
                          "internalType": "UFixed6",
                          "name": "targetUtilization",
                          "type": "uint256"
                        }
                      ],
                      "internalType": "struct UJumpRateUtilizationCurve6",
                      "name": "utilizationCurve",
                      "type": "tuple"
                    },
                    {
                      "components": [
                        {
                          "internalType": "UFixed6",
                          "name": "k",
                          "type": "uint256"
                        },
                        {
                          "internalType": "Fixed6",
                          "name": "min",
                          "type": "int256"
                        },
                        {
                          "internalType": "Fixed6",
                          "name": "max",
                          "type": "int256"
                        }
                      ],
                      "internalType": "struct PController6",
                      "name": "pController",
                      "type": "tuple"
                    },
                    {
                      "internalType": "UFixed6",
                      "name": "minMargin",
                      "type": "uint256"
                    },
                    {
                      "internalType": "UFixed6",
                      "name": "minMaintenance",
                      "type": "uint256"
                    },
                    {
                      "internalType": "uint256",
                      "name": "staleAfter",
                      "type": "uint256"
                    },
                    {
                      "internalType": "bool",
                      "name": "makerReceiveOnly",
                      "type": "bool"
                    }
                  ],
                  "internalType": "struct RiskParameter",
                  "name": "riskParameter",
                  "type": "tuple"
                },
                {
                  "components": [
                    {
                      "internalType": "uint256",
                      "name": "currentId",
                      "type": "uint256"
                    },
                    {
                      "internalType": "uint256",
                      "name": "latestId",
                      "type": "uint256"
                    },
                    {
                      "internalType": "UFixed6",
                      "name": "protocolFee",
                      "type": "uint256"
                    },
                    {
                      "internalType": "UFixed6",
                      "name": "oracleFee",
                      "type": "uint256"
                    },
                    {
                      "internalType": "UFixed6",
                      "name": "riskFee",
                      "type": "uint256"
                    },
                    {
                      "internalType": "UFixed6",
                      "name": "donation",
                      "type": "uint256"
                    },
                    {
                      "internalType": "Fixed6",
                      "name": "latestPrice",
                      "type": "int256"
                    },
                    {
                      "internalType": "Fixed6",
                      "name": "exposure",
                      "type": "int256"
                    },
                    {
                      "components": [
                        {
                          "internalType": "Fixed6",
                          "name": "_value",
                          "type": "int256"
                        },
                        {
                          "internalType": "Fixed6",
                          "name": "_skew",
                          "type": "int256"
                        }
                      ],
                      "internalType": "struct PAccumulator6",
                      "name": "pAccumulator",
                      "type": "tuple"
                    }
                  ],
                  "internalType": "struct Global",
                  "name": "global",
                  "type": "tuple"
                },
                {
                  "internalType": "address",
                  "name": "oracle",
                  "type": "address"
                },
                {
                  "components": [
                    {
                      "internalType": "uint256",
                      "name": "timestamp",
                      "type": "uint256"
                    },
                    {
                      "internalType": "uint256",
                      "name": "orders",
                      "type": "uint256"
                    },
                    {
                      "internalType": "Fixed6",
                      "name": "collateral",
                      "type": "int256"
                    },
                    {
                      "internalType": "UFixed6",
                      "name": "makerPos",
                      "type": "uint256"
                    },
                    {
                      "internalType": "UFixed6",
                      "name": "makerNeg",
                      "type": "uint256"
                    },
                    {
                      "internalType": "UFixed6",
                      "name": "longPos",
                      "type": "uint256"
                    },
                    {
                      "internalType": "UFixed6",
                      "name": "longNeg",
                      "type": "uint256"
                    },
                    {
                      "internalType": "UFixed6",
                      "name": "shortPos",
                      "type": "uint256"
                    },
                    {
                      "internalType": "UFixed6",
                      "name": "shortNeg",
                      "type": "uint256"
                    },
                    {
                      "internalType": "uint256",
                      "name": "protection",
                      "type": "uint256"
                    },
                    {
                      "internalType": "UFixed6",
                      "name": "makerReferral",
                      "type": "uint256"
                    },
                    {
                      "internalType": "UFixed6",
                      "name": "takerReferral",
                      "type": "uint256"
                    }
                  ],
                  "internalType": "struct Order",
                  "name": "pendingOrder",
                  "type": "tuple"
                },
                {
                  "components": [
                    {
                      "internalType": "uint256",
                      "name": "timestamp",
                      "type": "uint256"
                    },
                    {
                      "internalType": "UFixed6",
                      "name": "maker",
                      "type": "uint256"
                    },
                    {
                      "internalType": "UFixed6",
                      "name": "long",
                      "type": "uint256"
                    },
                    {
                      "internalType": "UFixed6",
                      "name": "short",
                      "type": "uint256"
                    }
                  ],
                  "internalType": "struct Position",
                  "name": "position",
                  "type": "tuple"
                },
                {
                  "components": [
                    {
                      "internalType": "uint256",
                      "name": "timestamp",
                      "type": "uint256"
                    },
                    {
                      "internalType": "UFixed6",
                      "name": "maker",
                      "type": "uint256"
                    },
                    {
                      "internalType": "UFixed6",
                      "name": "long",
                      "type": "uint256"
                    },
                    {
                      "internalType": "UFixed6",
                      "name": "short",
                      "type": "uint256"
                    }
                  ],
                  "internalType": "struct Position",
                  "name": "nextPosition",
                  "type": "tuple"
                },
                {
                  "components": [
                    {
                      "internalType": "uint256",
                      "name": "timestamp",
                      "type": "uint256"
                    },
                    {
                      "internalType": "UFixed6",
                      "name": "maker",
                      "type": "uint256"
                    },
                    {
                      "internalType": "UFixed6",
                      "name": "long",
                      "type": "uint256"
                    },
                    {
                      "internalType": "UFixed6",
                      "name": "short",
                      "type": "uint256"
                    }
                  ],
                  "internalType": "struct Position[]",
                  "name": "pendingPositions",
                  "type": "tuple[]"
                },
                {
                  "components": [
                    {
                      "internalType": "bool",
                      "name": "valid",
                      "type": "bool"
                    },
                    {
                      "components": [
                        {
                          "internalType": "Fixed6",
                          "name": "_value",
                          "type": "int256"
                        }
                      ],
                      "internalType": "struct Accumulator6",
                      "name": "makerValue",
                      "type": "tuple"
                    },
                    {
                      "components": [
                        {
                          "internalType": "Fixed6",
                          "name": "_value",
                          "type": "int256"
                        }
                      ],
                      "internalType": "struct Accumulator6",
                      "name": "longValue",
                      "type": "tuple"
                    },
                    {
                      "components": [
                        {
                          "internalType": "Fixed6",
                          "name": "_value",
                          "type": "int256"
                        }
                      ],
                      "internalType": "struct Accumulator6",
                      "name": "shortValue",
                      "type": "tuple"
                    },
                    {
                      "components": [
                        {
                          "internalType": "Fixed6",
                          "name": "_value",
                          "type": "int256"
                        }
                      ],
                      "internalType": "struct Accumulator6",
                      "name": "makerLinearFee",
                      "type": "tuple"
                    },
                    {
                      "components": [
                        {
                          "internalType": "Fixed6",
                          "name": "_value",
                          "type": "int256"
                        }
                      ],
                      "internalType": "struct Accumulator6",
                      "name": "makerProportionalFee",
                      "type": "tuple"
                    },
                    {
                      "components": [
                        {
                          "internalType": "Fixed6",
                          "name": "_value",
                          "type": "int256"
                        }
                      ],
                      "internalType": "struct Accumulator6",
                      "name": "takerLinearFee",
                      "type": "tuple"
                    },
                    {
                      "components": [
                        {
                          "internalType": "Fixed6",
                          "name": "_value",
                          "type": "int256"
                        }
                      ],
                      "internalType": "struct Accumulator6",
                      "name": "takerProportionalFee",
                      "type": "tuple"
                    },
                    {
                      "components": [
                        {
                          "internalType": "Fixed6",
                          "name": "_value",
                          "type": "int256"
                        }
                      ],
                      "internalType": "struct Accumulator6",
                      "name": "makerPosFee",
                      "type": "tuple"
                    },
                    {
                      "components": [
                        {
                          "internalType": "Fixed6",
                          "name": "_value",
                          "type": "int256"
                        }
                      ],
                      "internalType": "struct Accumulator6",
                      "name": "makerNegFee",
                      "type": "tuple"
                    },
                    {
                      "components": [
                        {
                          "internalType": "Fixed6",
                          "name": "_value",
                          "type": "int256"
                        }
                      ],
                      "internalType": "struct Accumulator6",
                      "name": "takerPosFee",
                      "type": "tuple"
                    },
                    {
                      "components": [
                        {
                          "internalType": "Fixed6",
                          "name": "_value",
                          "type": "int256"
                        }
                      ],
                      "internalType": "struct Accumulator6",
                      "name": "takerNegFee",
                      "type": "tuple"
                    },
                    {
                      "components": [
                        {
                          "internalType": "Fixed6",
                          "name": "_value",
                          "type": "int256"
                        }
                      ],
                      "internalType": "struct Accumulator6",
                      "name": "settlementFee",
                      "type": "tuple"
                    },
                    {
                      "components": [
                        {
                          "internalType": "Fixed6",
                          "name": "_value",
                          "type": "int256"
                        }
                      ],
                      "internalType": "struct Accumulator6",
                      "name": "liquidationFee",
                      "type": "tuple"
                    }
                  ],
                  "internalType": "struct Version[]",
                  "name": "versions",
                  "type": "tuple[]"
                },
                {
                  "components": [
                    {
                      "internalType": "uint256",
                      "name": "timestamp",
                      "type": "uint256"
                    },
                    {
                      "internalType": "Fixed6",
                      "name": "price",
                      "type": "int256"
                    },
                    {
                      "internalType": "bool",
                      "name": "valid",
                      "type": "bool"
                    }
                  ],
                  "internalType": "struct OracleVersion",
                  "name": "latestOracleVersion",
                  "type": "tuple"
                },
                {
                  "internalType": "uint256",
                  "name": "currentOracleVersion",
                  "type": "uint256"
                }
              ],
              "internalType": "struct Lens.MarketSnapshot[]",
              "name": "marketSnapshots",
              "type": "tuple[]"
            },
            {
              "components": [
                {
                  "internalType": "contract IMarket",
                  "name": "market",
                  "type": "address"
                },
                {
                  "internalType": "address",
                  "name": "account",
                  "type": "address"
                },
                {
                  "components": [
                    {
                      "internalType": "uint256",
                      "name": "currentId",
                      "type": "uint256"
                    },
                    {
                      "internalType": "uint256",
                      "name": "latestId",
                      "type": "uint256"
                    },
                    {
                      "internalType": "Fixed6",
                      "name": "collateral",
                      "type": "int256"
                    },
                    {
                      "internalType": "UFixed6",
                      "name": "claimable",
                      "type": "uint256"
                    }
                  ],
                  "internalType": "struct Local",
                  "name": "local",
                  "type": "tuple"
                },
                {
                  "components": [
                    {
                      "internalType": "uint256",
                      "name": "timestamp",
                      "type": "uint256"
                    },
                    {
                      "internalType": "uint256",
                      "name": "orders",
                      "type": "uint256"
                    },
                    {
                      "internalType": "Fixed6",
                      "name": "collateral",
                      "type": "int256"
                    },
                    {
                      "internalType": "UFixed6",
                      "name": "makerPos",
                      "type": "uint256"
                    },
                    {
                      "internalType": "UFixed6",
                      "name": "makerNeg",
                      "type": "uint256"
                    },
                    {
                      "internalType": "UFixed6",
                      "name": "longPos",
                      "type": "uint256"
                    },
                    {
                      "internalType": "UFixed6",
                      "name": "longNeg",
                      "type": "uint256"
                    },
                    {
                      "internalType": "UFixed6",
                      "name": "shortPos",
                      "type": "uint256"
                    },
                    {
                      "internalType": "UFixed6",
                      "name": "shortNeg",
                      "type": "uint256"
                    },
                    {
                      "internalType": "uint256",
                      "name": "protection",
                      "type": "uint256"
                    },
                    {
                      "internalType": "UFixed6",
                      "name": "makerReferral",
                      "type": "uint256"
                    },
                    {
                      "internalType": "UFixed6",
                      "name": "takerReferral",
                      "type": "uint256"
                    }
                  ],
                  "internalType": "struct Order",
                  "name": "pendingOrder",
                  "type": "tuple"
                },
                {
                  "components": [
                    {
                      "internalType": "uint256",
                      "name": "timestamp",
                      "type": "uint256"
                    },
                    {
                      "internalType": "UFixed6",
                      "name": "maker",
                      "type": "uint256"
                    },
                    {
                      "internalType": "UFixed6",
                      "name": "long",
                      "type": "uint256"
                    },
                    {
                      "internalType": "UFixed6",
                      "name": "short",
                      "type": "uint256"
                    }
                  ],
                  "internalType": "struct Position",
                  "name": "position",
                  "type": "tuple"
                },
                {
                  "components": [
                    {
                      "internalType": "uint256",
                      "name": "timestamp",
                      "type": "uint256"
                    },
                    {
                      "internalType": "UFixed6",
                      "name": "maker",
                      "type": "uint256"
                    },
                    {
                      "internalType": "UFixed6",
                      "name": "long",
                      "type": "uint256"
                    },
                    {
                      "internalType": "UFixed6",
                      "name": "short",
                      "type": "uint256"
                    }
                  ],
                  "internalType": "struct Position",
                  "name": "nextPosition",
                  "type": "tuple"
                },
                {
                  "components": [
                    {
                      "internalType": "Fixed6",
                      "name": "tradeFee",
                      "type": "int256"
                    },
                    {
                      "internalType": "UFixed6",
                      "name": "settlementFee",
                      "type": "uint256"
                    },
                    {
                      "internalType": "Fixed6",
                      "name": "transfer",
                      "type": "int256"
                    },
                    {
                      "internalType": "Fixed6",
                      "name": "collateral",
                      "type": "int256"
                    }
                  ],
                  "internalType": "struct Checkpoint",
                  "name": "checkpoint",
                  "type": "tuple"
                },
                {
                  "components": [
                    {
                      "internalType": "uint256",
                      "name": "timestamp",
                      "type": "uint256"
                    },
                    {
                      "internalType": "UFixed6",
                      "name": "maker",
                      "type": "uint256"
                    },
                    {
                      "internalType": "UFixed6",
                      "name": "long",
                      "type": "uint256"
                    },
                    {
                      "internalType": "UFixed6",
                      "name": "short",
                      "type": "uint256"
                    }
                  ],
                  "internalType": "struct Position[]",
                  "name": "pendingPositions",
                  "type": "tuple[]"
                },
                {
                  "components": [
                    {
                      "internalType": "bool",
                      "name": "valid",
                      "type": "bool"
                    },
                    {
                      "components": [
                        {
                          "internalType": "Fixed6",
                          "name": "_value",
                          "type": "int256"
                        }
                      ],
                      "internalType": "struct Accumulator6",
                      "name": "makerValue",
                      "type": "tuple"
                    },
                    {
                      "components": [
                        {
                          "internalType": "Fixed6",
                          "name": "_value",
                          "type": "int256"
                        }
                      ],
                      "internalType": "struct Accumulator6",
                      "name": "longValue",
                      "type": "tuple"
                    },
                    {
                      "components": [
                        {
                          "internalType": "Fixed6",
                          "name": "_value",
                          "type": "int256"
                        }
                      ],
                      "internalType": "struct Accumulator6",
                      "name": "shortValue",
                      "type": "tuple"
                    },
                    {
                      "components": [
                        {
                          "internalType": "Fixed6",
                          "name": "_value",
                          "type": "int256"
                        }
                      ],
                      "internalType": "struct Accumulator6",
                      "name": "makerLinearFee",
                      "type": "tuple"
                    },
                    {
                      "components": [
                        {
                          "internalType": "Fixed6",
                          "name": "_value",
                          "type": "int256"
                        }
                      ],
                      "internalType": "struct Accumulator6",
                      "name": "makerProportionalFee",
                      "type": "tuple"
                    },
                    {
                      "components": [
                        {
                          "internalType": "Fixed6",
                          "name": "_value",
                          "type": "int256"
                        }
                      ],
                      "internalType": "struct Accumulator6",
                      "name": "takerLinearFee",
                      "type": "tuple"
                    },
                    {
                      "components": [
                        {
                          "internalType": "Fixed6",
                          "name": "_value",
                          "type": "int256"
                        }
                      ],
                      "internalType": "struct Accumulator6",
                      "name": "takerProportionalFee",
                      "type": "tuple"
                    },
                    {
                      "components": [
                        {
                          "internalType": "Fixed6",
                          "name": "_value",
                          "type": "int256"
                        }
                      ],
                      "internalType": "struct Accumulator6",
                      "name": "makerPosFee",
                      "type": "tuple"
                    },
                    {
                      "components": [
                        {
                          "internalType": "Fixed6",
                          "name": "_value",
                          "type": "int256"
                        }
                      ],
                      "internalType": "struct Accumulator6",
                      "name": "makerNegFee",
                      "type": "tuple"
                    },
                    {
                      "components": [
                        {
                          "internalType": "Fixed6",
                          "name": "_value",
                          "type": "int256"
                        }
                      ],
                      "internalType": "struct Accumulator6",
                      "name": "takerPosFee",
                      "type": "tuple"
                    },
                    {
                      "components": [
                        {
                          "internalType": "Fixed6",
                          "name": "_value",
                          "type": "int256"
                        }
                      ],
                      "internalType": "struct Accumulator6",
                      "name": "takerNegFee",
                      "type": "tuple"
                    },
                    {
                      "components": [
                        {
                          "internalType": "Fixed6",
                          "name": "_value",
                          "type": "int256"
                        }
                      ],
                      "internalType": "struct Accumulator6",
                      "name": "settlementFee",
                      "type": "tuple"
                    },
                    {
                      "components": [
                        {
                          "internalType": "Fixed6",
                          "name": "_value",
                          "type": "int256"
                        }
                      ],
                      "internalType": "struct Accumulator6",
                      "name": "liquidationFee",
                      "type": "tuple"
                    }
                  ],
                  "internalType": "struct Version[]",
                  "name": "versions",
                  "type": "tuple[]"
                },
                {
                  "internalType": "Fixed6[]",
                  "name": "prices",
                  "type": "int256[]"
                }
              ],
              "internalType": "struct Lens.MarketAccountSnapshot[]",
              "name": "marketVaultSnapshots",
              "type": "tuple[]"
            }
          ],
          "internalType": "struct VaultLens.VaultSnapshot",
          "name": "vaultSnapshot",
          "type": "tuple"
        }
      ],
      "stateMutability": "view",
      "type": "function"
    },
    {
      "inputs": [
        {
          "internalType": "contract IVault",
          "name": "vault",
          "type": "address"
        },
        {
          "internalType": "address",
          "name": "account",
          "type": "address"
        },
        {
          "internalType": "address",
          "name": "multiInvoker",
          "type": "address"
        },
        {
          "internalType": "UFixed6",
          "name": "vaultShares",
          "type": "uint256"
        },
        {
          "internalType": "Fixed6",
          "name": "vaultAssets",
          "type": "int256"
        }
      ],
      "name": "snapshotVaultAccount",
      "outputs": [
        {
          "components": [
            {
              "internalType": "contract IVault",
              "name": "vault",
              "type": "address"
            },
            {
              "internalType": "address",
              "name": "account",
              "type": "address"
            },
            {
              "components": [
                {
                  "internalType": "uint256",
                  "name": "current",
                  "type": "uint256"
                },
                {
                  "internalType": "uint256",
                  "name": "latest",
                  "type": "uint256"
                },
                {
                  "internalType": "UFixed6",
                  "name": "shares",
                  "type": "uint256"
                },
                {
                  "internalType": "UFixed6",
                  "name": "assets",
                  "type": "uint256"
                },
                {
                  "internalType": "UFixed6",
                  "name": "deposit",
                  "type": "uint256"
                },
                {
                  "internalType": "UFixed6",
                  "name": "redemption",
                  "type": "uint256"
                }
              ],
              "internalType": "struct Account",
              "name": "accountData",
              "type": "tuple"
            },
            {
              "internalType": "UFixed6",
              "name": "assets",
              "type": "uint256"
            },
            {
              "internalType": "UFixed6",
              "name": "redemptionAssets",
              "type": "uint256"
            },
            {
              "internalType": "bool",
              "name": "multiInvokerApproved",
              "type": "bool"
            }
          ],
          "internalType": "struct VaultLens.VaultAccountSnapshot",
          "name": "vaultAccountSnapshot",
          "type": "tuple"
        }
      ],
      "stateMutability": "view",
      "type": "function"
    },
    {
      "inputs": [
        {
          "internalType": "contract IVault",
          "name": "vault",
          "type": "address"
        },
        {
          "internalType": "address",
          "name": "account",
          "type": "address"
        },
        {
          "internalType": "UFixed6",
          "name": "vaultMinimum",
          "type": "uint256"
        }
      ],
      "name": "updateAndSettle",
      "outputs": [
        {
          "internalType": "bytes",
          "name": "updateErr",
          "type": "bytes"
        },
        {
          "internalType": "bytes",
          "name": "settleErr",
          "type": "bytes"
        }
      ],
      "stateMutability": "nonpayable",
      "type": "function"
    }
  ],
  "bytecode": "0x608060405234801561001057600080fd5b5061599280620000216000396000f3fe608060405234801561001057600080fd5b506004361061004c5760003560e01c80631f8b00d81461005157806332dd5bd41461008257806366e7f423146100b2578063ea646943146100e2575b600080fd5b61006b60048036038101906100669190611e68565b610112565b604051610079929190611f4b565b60405180910390f35b61009c600480360381019061009791906124cf565b610327565b6040516100a99190613b94565b60405180910390f35b6100cc60048036038101906100c79190613be2565b6109b4565b6040516100d99190613d8d565b60405180910390f35b6100fc60048036038101906100f79190613ddb565b6112d2565b6040516101099190613ed5565b60405180910390f35b6060806101ac858673ffffffffffffffffffffffffffffffffffffffff166338d52e0f6040518163ffffffff1660e01b8152600401602060405180830381865afa158015610164573d6000803e3d6000fd5b505050506040513d601f19601f820116820180604052508101906101889190613f1d565b73ffffffffffffffffffffffffffffffffffffffff1661158890919063ffffffff16565b8473ffffffffffffffffffffffffffffffffffffffff1663d2c3aaf230856000806040518563ffffffff1660e01b81526004016101ec9493929190613f68565b600060405180830381600087803b15801561020657600080fd5b505af1925050508015610217575060015b610256573d8060008114610247576040519150601f19603f3d011682016040523d82523d6000602084013e61024c565b606091505b5080925050610269565b6040518060200160405280600081525091505b8473ffffffffffffffffffffffffffffffffffffffff16636a256b29856040518263ffffffff1660e01b81526004016102a29190613fad565b600060405180830381600087803b1580156102bc57600080fd5b505af19250505080156102cd575060015b61030c573d80600081146102fd576040519150601f19603f3d011682016040523d82523d6000602084013e610302565b606091505b508091505061031f565b6040518060200160405280600081525090505b935093915050565b61032f611713565b6000845167ffffffffffffffff81111561034c5761034b611f87565b5b60405190808252806020026020018201604052801561038557816020015b61037261174e565b81526020019060019003908161036a5790505b5090506000855167ffffffffffffffff8111156103a5576103a4611f87565b5b6040519080825280602002602001820160405280156103de57816020015b6103cb6117f2565b8152602001906001900390816103c35790505b50905060005b86518110156104c55761041387828151811061040357610402613fc8565b5b60200260200101518960006109b4565b83828151811061042657610425613fc8565b5b602002602001018190525061049487828151811061044757610446613fc8565b5b6020026020010151878786858151811061046457610463613fc8565b5b60200260200101516080015187868151811061048357610482613fc8565b5b6020026020010151606001516112d2565b8282815181106104a7576104a6613fc8565b5b602002602001018190525080806104bd90614026565b9150506103e4565b508183606001516000018190525080836060015160200181905250875167ffffffffffffffff8111156104fb576104fa611f87565b5b60405190808252806020026020018201604052801561052e57816020015b60608152602001906001900390816105195790505b50836000018190525060005b8851811015610697578773ffffffffffffffffffffffffffffffffffffffff1663a05a212e8a838151811061057257610571613fc8565b5b6020026020010151600001518b848151811061059157610590613fc8565b5b6020026020010151602001518c85815181106105b0576105af613fc8565b5b6020026020010151604001518d86815181106105cf576105ce613fc8565b5b6020026020010151606001518e87815181106105ee576105ed613fc8565b5b6020026020010151608001516040518663ffffffff1660e01b815260040161061a95949392919061415c565b6000604051808303816000875af1158015610639573d6000803e3d6000fd5b505050506040513d6000823e3d601f19601f82011682018060405250810190610662919061422d565b8460000151828151811061067957610678613fc8565b5b6020026020010181905250808061068f90614026565b91505061053a565b50855167ffffffffffffffff8111156106b3576106b2611f87565b5b6040519080825280602002602001820160405280156106e657816020015b60608152602001906001900390816106d15790505b508360400181905250855167ffffffffffffffff81111561070a57610709611f87565b5b60405190808252806020026020018201604052801561073d57816020015b60608152602001906001900390816107285790505b50836020018190525060005b86518110156107f55761079e87828151811061076857610767613fc8565b5b602002602001015187866060015160000151848151811061078c5761078b613fc8565b5b60200260200101516101600151610112565b856020015183815181106107b5576107b4613fc8565b5b60200260200101866040015184815181106107d3576107d2613fc8565b5b60200260200101829052829052505080806107ed90614026565b915050610749565b506000865167ffffffffffffffff81111561081357610812611f87565b5b60405190808252806020026020018201604052801561084c57816020015b61083961174e565b8152602001906001900390816108315790505b5090506000875167ffffffffffffffff81111561086c5761086b611f87565b5b6040519080825280602002602001820160405280156108a557816020015b6108926117f2565b81526020019060019003908161088a5790505b50905060005b885181101561098c576108da8982815181106108ca576108c9613fc8565b5b60200260200101518b60016109b4565b8382815181106108ed576108ec613fc8565b5b602002602001018190525061095b89828151811061090e5761090d613fc8565b5b6020026020010151898986858151811061092b5761092a613fc8565b5b60200260200101516080015187868151811061094a57610949613fc8565b5b6020026020010151606001516112d2565b82828151811061096e5761096d613fc8565b5b6020026020010181905250808061098490614026565b9150506108ab565b5081856080015160000181905250808560800151602001819052505050505095945050505050565b6109bc61174e565b83816000019073ffffffffffffffffffffffffffffffffffffffff16908173ffffffffffffffffffffffffffffffffffffffff16815250508373ffffffffffffffffffffffffffffffffffffffff166306fdde036040518163ffffffff1660e01b8152600401600060405180830381865afa158015610a3f573d6000803e3d6000fd5b505050506040513d6000823e3d601f19601f82011682018060405250810190610a689190614317565b81602001819052508373ffffffffffffffffffffffffffffffffffffffff1663ad4d4e296040518163ffffffff1660e01b8152600401602060405180830381865afa158015610abb573d6000803e3d6000fd5b505050506040513d601f19601f82011682018060405250810190610adf91906143b1565b81604001819052508373ffffffffffffffffffffffffffffffffffffffff166301e1d1146040518163ffffffff1660e01b8152600401602060405180830381865afa158015610b32573d6000803e3d6000fd5b505050506040513d601f19601f82011682018060405250810190610b5691906143f3565b8160600181815250508373ffffffffffffffffffffffffffffffffffffffff16633a98ef396040518163ffffffff1660e01b8152600401602060405180830381865afa158015610baa573d6000803e3d6000fd5b505050506040513d601f19601f82011682018060405250810190610bce9190614420565b8160800181815250508373ffffffffffffffffffffffffffffffffffffffff16638162486b6040518163ffffffff1660e01b8152600401602060405180830381865afa158015610c22573d6000803e3d6000fd5b505050506040513d601f19601f82011682018060405250810190610c469190614462565b8160a00181815250508060a0015167ffffffffffffffff811115610c6d57610c6c611f87565b5b604051908082528060200260200182016040528015610ca657816020015b610c9361185c565b815260200190600190039081610c8b5790505b508160c001819052508060a0015167ffffffffffffffff811115610ccd57610ccc611f87565b5b604051908082528060200260200182016040528015610d0657816020015b610cf3611893565b815260200190600190039081610ceb5790505b50816101a001819052508060a0015167ffffffffffffffff811115610d2e57610d2d611f87565b5b604051908082528060200260200182016040528015610d6757816020015b610d5461194a565b815260200190600190039081610d4c5790505b50816101c001819052508373ffffffffffffffffffffffffffffffffffffffff16635e5c06e260006040518263ffffffff1660e01b8152600401610dab9190613fad565b60c060405180830381865afa158015610dc8573d6000803e3d6000fd5b505050506040513d601f19601f82011682018060405250810190610dec919061452f565b8160e001819052508373ffffffffffffffffffffffffffffffffffffffff1663b8a242528260e00151602001516040518263ffffffff1660e01b8152600401610e35919061455c565b61012060405180830381865afa158015610e53573d6000803e3d6000fd5b505050506040513d601f19601f82011682018060405250810190610e779190614657565b8161010001819052508373ffffffffffffffffffffffffffffffffffffffff1663b8a242528260e00151600001516040518263ffffffff1660e01b8152600401610ec1919061455c565b61012060405180830381865afa158015610edf573d6000803e3d6000fd5b505050506040513d601f19601f82011682018060405250810190610f039190614657565b81610120018190525060005b8160a00151811015611299578473ffffffffffffffffffffffffffffffffffffffff1663f4ddb5be826040518263ffffffff1660e01b8152600401610f54919061455c565b606060405180830381865afa158015610f71573d6000803e3d6000fd5b505050506040513d601f19601f82011682018060405250810190610f959190614727565b8260c001518281518110610fac57610fab613fc8565b5b60200260200101819052508373ffffffffffffffffffffffffffffffffffffffff16636eb79f6a8360c001518381518110610fea57610fe9613fc8565b5b6020026020010151600001516040518263ffffffff1660e01b81526004016110129190614763565b600060405180830381865afa15801561102f573d6000803e3d6000fd5b505050506040513d6000823e3d601f19601f820116820180604052508101906110589190615372565b826101a0015182815181106110705761106f613fc8565b5b60200260200101819052508373ffffffffffffffffffffffffffffffffffffffff16637987bd7f8360c0015183815181106110ae576110ad613fc8565b5b602002602001015160000151876040518363ffffffff1660e01b81526004016110d89291906153bb565b600060405180830381865afa1580156110f5573d6000803e3d6000fd5b505050506040513d6000823e3d601f19601f8201168201806040525081019061111e91906156e5565b826101c00151828151811061113657611135613fc8565b5b6020026020010181905250611180826101a00151828151811061115c5761115b613fc8565b5b60200260200101516020015160e0015183610160015161162b90919063ffffffff16565b826101600181815250506111c9826101c0015182815181106111a5576111a4613fc8565b5b6020026020010151604001516040015183610180015161164190919063ffffffff16565b826101800181815250506111fe8260c0015182815181106111ed576111ec613fc8565b5b602002602001015160200151611657565b15806112375750611235826101c0015182815181106112205761121f613fc8565b5b60200260200101516040015160400151611663565b155b156112865761127b826101a00151828151811061125757611256613fc8565b5b60200260200101516020015160e0015183610140015161162b90919063ffffffff16565b826101400181815250505b808061129190614026565b915050610f0f565b5081156112cb576112c18161012001516060015182610180015161164190919063ffffffff16565b8160600181815250505b9392505050565b6112da6117f2565b85816000019073ffffffffffffffffffffffffffffffffffffffff16908173ffffffffffffffffffffffffffffffffffffffff168152505084816020019073ffffffffffffffffffffffffffffffffffffffff16908173ffffffffffffffffffffffffffffffffffffffff16815250508573ffffffffffffffffffffffffffffffffffffffff16635e5c06e2866040518263ffffffff1660e01b81526004016113839190613fad565b60c060405180830381865afa1580156113a0573d6000803e3d6000fd5b505050506040513d601f19601f820116820180604052508101906113c4919061452f565b81604001819052506113d583611657565b611416576114116113f86113f360008561166f90919063ffffffff16565b611683565b848360400151604001516116d89092919063ffffffff16565b611420565b8060400151604001515b81606001818152505061143283611657565b6114735761146e61145561145060008561166f90919063ffffffff16565b611683565b84836040015160a001516116d89092919063ffffffff16565b61147d565b806040015160a001515b8160800181815250508573ffffffffffffffffffffffffffffffffffffffff1663c45a01556040518163ffffffff1660e01b8152600401602060405180830381865afa1580156114d1573d6000803e3d6000fd5b505050506040513d601f19601f820116820180604052508101906114f5919061576c565b73ffffffffffffffffffffffffffffffffffffffff16632637588e86866040518363ffffffff1660e01b815260040161152f929190615799565b602060405180830381865afa15801561154c573d6000803e3d6000fd5b505050506040513d601f19601f8201168201806040525081019061157091906157c2565b8160a001901515908115158152505095945050505050565b8173ffffffffffffffffffffffffffffffffffffffff1663095ea7b3827fffffffffffffffffffffffffffffffffffffffffffffffffffffffffffffffff6040518363ffffffff1660e01b81526004016115e39291906157ef565b6020604051808303816000875af1158015611602573d6000803e3d6000fd5b505050506040513d601f19601f8201168201806040525081019061162691906157c2565b505050565b600081836116399190615818565b905092915050565b6000818361164f919061584c565b905092915050565b60008082149050919050565b60008082149050919050565b600061167b83836116fa565b905092915050565b60008082905060008112156116cf57806040517fb02ef0870000000000000000000000000000000000000000000000000000000081526004016116c6919061589f565b60405180910390fd5b80915050919050565b60008183856116e791906158ba565b6116f1919061592b565b90509392505050565b6000818313611709578161170b565b825b905092915050565b6040518060a0016040528060608152602001606081526020016060815260200161173b6119e7565b81526020016117486119e7565b81525090565b604051806101e00160405280600073ffffffffffffffffffffffffffffffffffffffff16815260200160608152602001611786611a01565b8152602001600081526020016000815260200160008152602001606081526020016117af611a14565b81526020016117bc611a4a565b81526020016117c9611a4a565b815260200160008152602001600081526020016000815260200160608152602001606081525090565b6040518060c00160405280600073ffffffffffffffffffffffffffffffffffffffff168152602001600073ffffffffffffffffffffffffffffffffffffffff16815260200161183f611a14565b815260200160008152602001600081526020016000151581525090565b6040518060600160405280600073ffffffffffffffffffffffffffffffffffffffff16815260200160008152602001600081525090565b604051806101800160405280600073ffffffffffffffffffffffffffffffffffffffff1681526020016118c4611a96565b81526020016118d1611aff565b81526020016118de611b81565b8152602001600073ffffffffffffffffffffffffffffffffffffffff168152602001611908611bd3565b8152602001611915611c34565b8152602001611922611c34565b8152602001606081526020016060815260200161193d611c5c565b8152602001600081525090565b604051806101400160405280600073ffffffffffffffffffffffffffffffffffffffff168152602001600073ffffffffffffffffffffffffffffffffffffffff168152602001611998611c7f565b81526020016119a5611bd3565b81526020016119b2611c34565b81526020016119bf611c34565b81526020016119cc611ca7565b81526020016060815260200160608152602001606081525090565b604051806040016040528060608152602001606081525090565b6040518060200160405280600081525090565b6040518060c001604052806000815260200160008152602001600081526020016000815260200160008152602001600081525090565b6040518061012001604052806000815260200160008152602001600081526020016000815260200160008152602001600081526020016000815260200160008152602001600081525090565b60405180610180016040528060008152602001600081526020016000815260200160008152602001600081526020016000815260200160008152602001600081526020016000151581526020016000151581526020016000151581526020016000151581525090565b604051806101a001604052806000815260200160008152602001611b21611ccf565b8152602001611b2e611cf7565b8152602001600081526020016000815260200160008152602001611b50611d1f565b8152602001611b5d611d47565b81526020016000815260200160008152602001600081526020016000151581525090565b6040518061012001604052806000815260200160008152602001600081526020016000815260200160008152602001600081526020016000815260200160008152602001611bcd611d68565b81525090565b6040518061018001604052806000815260200160008152602001600081526020016000815260200160008152602001600081526020016000815260200160008152602001600081526020016000815260200160008152602001600081525090565b6040518060800160405280600081526020016000815260200160008152602001600081525090565b604051806060016040528060008152602001600081526020016000151581525090565b6040518060800160405280600081526020016000815260200160008152602001600081525090565b6040518060800160405280600081526020016000815260200160008152602001600081525090565b6040518060800160405280600081526020016000815260200160008152602001600081525090565b6040518060800160405280600081526020016000815260200160008152602001600081525090565b6040518060800160405280600081526020016000815260200160008152602001600081525090565b60405180606001604052806000815260200160008152602001600081525090565b604051806040016040528060008152602001600081525090565b6000604051905090565b600080fd5b600080fd5b600073ffffffffffffffffffffffffffffffffffffffff82169050919050565b6000611dc182611d96565b9050919050565b6000611dd382611db6565b9050919050565b611de381611dc8565b8114611dee57600080fd5b50565b600081359050611e0081611dda565b92915050565b611e0f81611db6565b8114611e1a57600080fd5b50565b600081359050611e2c81611e06565b92915050565b6000819050919050565b611e4581611e32565b8114611e5057600080fd5b50565b600081359050611e6281611e3c565b92915050565b600080600060608486031215611e8157611e80611d8c565b5b6000611e8f86828701611df1565b9350506020611ea086828701611e1d565b9250506040611eb186828701611e53565b9150509250925092565b600081519050919050565b600082825260208201905092915050565b60005b83811015611ef5578082015181840152602081019050611eda565b60008484015250505050565b6000601f19601f8301169050919050565b6000611f1d82611ebb565b611f278185611ec6565b9350611f37818560208601611ed7565b611f4081611f01565b840191505092915050565b60006040820190508181036000830152611f658185611f12565b90508181036020830152611f798184611f12565b90509392505050565b600080fd5b7f4e487b7100000000000000000000000000000000000000000000000000000000600052604160045260246000fd5b611fbf82611f01565b810181811067ffffffffffffffff82111715611fde57611fdd611f87565b5b80604052505050565b6000611ff1611d82565b9050611ffd8282611fb6565b919050565b600067ffffffffffffffff82111561201d5761201c611f87565b5b602082029050602081019050919050565b600080fd5b600080fd5b600080fd5b600061204882611db6565b9050919050565b6120588161203d565b811461206357600080fd5b50565b6000813590506120758161204f565b92915050565b61208481611e32565b811461208f57600080fd5b50565b6000813590506120a18161207b565b92915050565b600067ffffffffffffffff8211156120c2576120c1611f87565b5b602082029050602081019050919050565b6000819050919050565b6120e6816120d3565b81146120f157600080fd5b50565b600081359050612103816120dd565b92915050565b600061211c612117846120a7565b611fe7565b9050808382526020820190506020840283018581111561213f5761213e61202e565b5b835b81811015612168578061215488826120f4565b845260208401935050602081019050612141565b5050509392505050565b600082601f83011261218757612186611f82565b5b8135612197848260208601612109565b91505092915050565b600080fd5b600067ffffffffffffffff8211156121c0576121bf611f87565b5b6121c982611f01565b9050602081019050919050565b82818337600083830152505050565b60006121f86121f3846121a5565b611fe7565b905082815260208101848484011115612214576122136121a0565b5b61221f8482856121d6565b509392505050565b600082601f83011261223c5761223b611f82565b5b813561224c8482602086016121e5565b91505092915050565b600060a0828403121561226b5761226a612033565b5b61227560a0611fe7565b9050600061228584828501612066565b600083015250602061229984828501612092565b602083015250604082013567ffffffffffffffff8111156122bd576122bc612038565b5b6122c984828501612172565b60408301525060606122dd84828501612092565b606083015250608082013567ffffffffffffffff81111561230157612300612038565b5b61230d84828501612227565b60808301525092915050565b600061232c61232784612002565b611fe7565b9050808382526020820190506020840283018581111561234f5761234e61202e565b5b835b8181101561239657803567ffffffffffffffff81111561237457612373611f82565b5b8086016123818982612255565b85526020850194505050602081019050612351565b5050509392505050565b600082601f8301126123b5576123b4611f82565b5b81356123c5848260208601612319565b91505092915050565b60006123d982611db6565b9050919050565b6123e9816123ce565b81146123f457600080fd5b50565b600081359050612406816123e0565b92915050565b600067ffffffffffffffff82111561242757612426611f87565b5b602082029050602081019050919050565b600061244b6124468461240c565b611fe7565b9050808382526020820190506020840283018581111561246e5761246d61202e565b5b835b8181101561249757806124838882611df1565b845260208401935050602081019050612470565b5050509392505050565b600082601f8301126124b6576124b5611f82565b5b81356124c6848260208601612438565b91505092915050565b600080600080600060a086880312156124eb576124ea611d8c565b5b600086013567ffffffffffffffff81111561250957612508611d91565b5b612515888289016123a0565b9550506020612526888289016123f7565b945050604086013567ffffffffffffffff81111561254757612546611d91565b5b612553888289016124a1565b935050606061256488828901611e1d565b925050608061257588828901611e1d565b9150509295509295909350565b600081519050919050565b600082825260208201905092915050565b6000819050602082019050919050565b600082825260208201905092915050565b60006125ca82611ebb565b6125d481856125ae565b93506125e4818560208601611ed7565b6125ed81611f01565b840191505092915050565b600061260483836125bf565b905092915050565b6000602082019050919050565b600061262482612582565b61262e818561258d565b9350836020820285016126408561259e565b8060005b8581101561267c578484038952815161265d85826125f8565b94506126688361260c565b925060208a01995050600181019050612644565b50829750879550505050505092915050565b600081519050919050565b600082825260208201905092915050565b6000819050602082019050919050565b6000819050919050565b60006126df6126da6126d584611d96565b6126ba565b611d96565b9050919050565b60006126f1826126c4565b9050919050565b6000612703826126e6565b9050919050565b612713816126f8565b82525050565b600081519050919050565b600082825260208201905092915050565b600061274082612719565b61274a8185612724565b935061275a818560208601611ed7565b61276381611f01565b840191505092915050565b600061278961278461277f84611e32565b6126ba565b611e32565b9050919050565b6127998161276e565b82525050565b6020820160008201516127b56000850182612790565b50505050565b6000819050919050565b60006127e06127db6127d6846127bb565b6126ba565b6127bb565b9050919050565b6127f0816127c5565b82525050565b6127ff81611e32565b82525050565b600081519050919050565b600082825260208201905092915050565b6000819050602082019050919050565b600061283c826126e6565b9050919050565b61284c81612831565b82525050565b6060820160008201516128686000850182612843565b50602082015161287b6020850182612790565b50604082015161288e6040850182612790565b50505050565b60006128a08383612852565b60608301905092915050565b6000602082019050919050565b60006128c482612805565b6128ce8185612810565b93506128d983612821565b8060005b8381101561290a5781516128f18882612894565b97506128fc836128ac565b9250506001810190506128dd565b5085935050505092915050565b60c08201600082015161292d60008501826127f6565b50602082015161294060208501826127f6565b5060408201516129536040850182612790565b5060608201516129666060850182612790565b5060808201516129796080850182612790565b5060a082015161298c60a0850182612790565b50505050565b610120820160008201516129a96000850182612790565b5060208201516129bc6020850182612790565b5060408201516129cf6040850182612790565b5060608201516129e260608501826127e7565b5060808201516129f560808501826127e7565b5060a0820151612a0860a0850182612790565b5060c0820151612a1b60c08501826127f6565b5060e0820151612a2e60e08501826127f6565b50610100820151612a436101008501826127f6565b50505050565b600081519050919050565b600082825260208201905092915050565b6000819050602082019050919050565b60008115159050919050565b612a8a81612a75565b82525050565b61018082016000820151612aa76000850182612790565b506020820151612aba6020850182612790565b506040820151612acd6040850182612790565b506060820151612ae06060850182612790565b506080820151612af36080850182612790565b5060a0820151612b0660a08501826127f6565b5060c0820151612b1960c08501826127f6565b5060e0820151612b2c60e0850182612790565b50610100820151612b41610100850182612a81565b50610120820151612b56610120850182612a81565b50610140820151612b6b610140850182612a81565b50610160820151612b80610160850182612a81565b50505050565b608082016000820151612b9c6000850182612790565b506020820151612baf6020850182612790565b506040820151612bc26040850182612790565b506060820151612bd56060850182612790565b50505050565b608082016000820151612bf16000850182612790565b506020820151612c046020850182612790565b506040820151612c176040850182612790565b506060820151612c2a6060850182612790565b50505050565b608082016000820151612c466000850182612790565b506020820151612c596020850182612790565b506040820151612c6c6040850182612790565b506060820151612c7f6060850182612790565b50505050565b606082016000820151612c9b6000850182612790565b506020820151612cae60208501826127e7565b506040820151612cc160408501826127e7565b50505050565b61030082016000820151612cde6000850182612790565b506020820151612cf16020850182612790565b506040820151612d046040850182612b86565b506060820151612d1760c0850182612bdb565b506080820151612d2b610140850182612790565b5060a0820151612d3f610160850182612790565b5060c0820151612d53610180850182612790565b5060e0820151612d676101a0850182612c30565b50610100820151612d7c610220850182612c85565b50610120820151612d91610280850182612790565b50610140820151612da66102a0850182612790565b50610160820151612dbb6102c08501826127f6565b50610180820151612dd06102e0850182612a81565b50505050565b604082016000820151612dec60008501826127e7565b506020820151612dff60208501826127e7565b50505050565b61014082016000820151612e1c60008501826127f6565b506020820151612e2f60208501826127f6565b506040820151612e426040850182612790565b506060820151612e556060850182612790565b506080820151612e686080850182612790565b5060a0820151612e7b60a0850182612790565b5060c0820151612e8e60c08501826127e7565b5060e0820151612ea160e08501826127e7565b50610100820151612eb6610100850182612dd6565b50505050565b612ec581611db6565b82525050565b61018082016000820151612ee260008501826127f6565b506020820151612ef560208501826127f6565b506040820151612f0860408501826127e7565b506060820151612f1b6060850182612790565b506080820151612f2e6080850182612790565b5060a0820151612f4160a0850182612790565b5060c0820151612f5460c0850182612790565b5060e0820151612f6760e0850182612790565b50610100820151612f7c610100850182612790565b50610120820151612f916101208501826127f6565b50610140820151612fa6610140850182612790565b50610160820151612fbb610160850182612790565b50505050565b608082016000820151612fd760008501826127f6565b506020820151612fea6020850182612790565b506040820151612ffd6040850182612790565b5060608201516130106060850182612790565b50505050565b600081519050919050565b600082825260208201905092915050565b6000819050602082019050919050565b600061304e8383612fc1565b60808301905092915050565b6000602082019050919050565b600061307282613016565b61307c8185613021565b935061308783613032565b8060005b838110156130b857815161309f8882613042565b97506130aa8361305a565b92505060018101905061308b565b5085935050505092915050565b600081519050919050565b600082825260208201905092915050565b6000819050602082019050919050565b60208201600082015161310760008501826127e7565b50505050565b6101c0820160008201516131246000850182612a81565b50602082015161313760208501826130f1565b50604082015161314a60408501826130f1565b50606082015161315d60608501826130f1565b50608082015161317060808501826130f1565b5060a082015161318360a08501826130f1565b5060c082015161319660c08501826130f1565b5060e08201516131a960e08501826130f1565b506101008201516131be6101008501826130f1565b506101208201516131d36101208501826130f1565b506101408201516131e86101408501826130f1565b506101608201516131fd6101608501826130f1565b506101808201516132126101808501826130f1565b506101a08201516132276101a08501826130f1565b50505050565b6000613239838361310d565b6101c08301905092915050565b6000602082019050919050565b600061325e826130c5565b61326881856130d0565b9350613273836130e1565b8060005b838110156132a457815161328b888261322d565b975061329683613246565b925050600181019050613277565b5085935050505092915050565b6060820160008201516132c760008501826127f6565b5060208201516132da60208501826127e7565b5060408201516132ed6040850182612a81565b50505050565b60006109408301600083015161330c6000860182612843565b50602083015161331f6020860182612a90565b5060408301516133336101a0860182612cc7565b5060608301516133476104a0860182612e05565b50608083015161335b6105e0860182612ebc565b5060a083015161336f610600860182612ecb565b5060c0830151613383610780860182612fc1565b5060e0830151613397610800860182612fc1565b506101008301518482036108808601526133b18282613067565b9150506101208301518482036108a08601526133cd8282613253565b9150506101408301516133e46108c08601826132b1565b506101608301516133f96109208601826127f6565b508091505092915050565b600061341083836132f3565b905092915050565b6000602082019050919050565b600061343082612a49565b61343a8185612a54565b93508360208202850161344c85612a65565b8060005b8581101561348857848403895281516134698582613404565b945061347483613418565b925060208a01995050600181019050613450565b50829750879550505050505092915050565b600081519050919050565b600082825260208201905092915050565b6000819050602082019050919050565b6080820160008201516134dc60008501826127f6565b5060208201516134ef60208501826127f6565b50604082015161350260408501826127e7565b5060608201516135156060850182612790565b50505050565b60808201600082015161353160008501826127e7565b5060208201516135446020850182612790565b50604082015161355760408501826127e7565b50606082015161356a60608501826127e7565b50505050565b600081519050919050565b600082825260208201905092915050565b6000819050602082019050919050565b60006135a883836127e7565b60208301905092915050565b6000602082019050919050565b60006135cc82613570565b6135d6818561357b565b93506135e18361358c565b8060005b838110156136125781516135f9888261359c565b9750613604836135b4565b9250506001810190506135e5565b5085935050505092915050565b6000610420830160008301516136386000860182612843565b50602083015161364b6020860182612ebc565b50604083015161365e60408601826134c6565b50606083015161367160c0860182612ecb565b506080830151613685610240860182612fc1565b5060a08301516136996102c0860182612fc1565b5060c08301516136ad61034086018261351b565b5060e08301518482036103c08601526136c68282613067565b9150506101008301518482036103e08601526136e28282613253565b9150506101208301518482036104008601526136fe82826135c1565b9150508091505092915050565b6000613717838361361f565b905092915050565b6000602082019050919050565b60006137378261349a565b61374181856134a5565b935083602082028501613753856134b6565b8060005b8581101561378f5784840389528151613770858261370b565b945061377b8361371f565b925060208a01995050600181019050613757565b50829750879550505050505092915050565b6000610480830160008301516137ba600086018261270a565b50602083015184820360208601526137d28282612735565b91505060408301516137e7604086018261279f565b5060608301516137fa60608601826127e7565b50608083015161380d6080860182612790565b5060a083015161382060a08601826127f6565b5060c083015184820360c086015261383882826128b9565b91505060e083015161384d60e0860182612917565b506101008301516138626101a0860182612992565b506101208301516138776102c0860182612992565b5061014083015161388c6103e0860182612790565b506101608301516138a1610400860182612790565b506101808301516138b66104208601826127e7565b506101a08301518482036104408601526138d08282613425565b9150506101c08301518482036104608601526138ec828261372c565b9150508091505092915050565b600061390583836137a1565b905092915050565b6000602082019050919050565b60006139258261268e565b61392f8185612699565b935083602082028501613941856126aa565b8060005b8581101561397d578484038952815161395e85826138f9565b94506139698361390d565b925060208a01995050600181019050613945565b50829750879550505050505092915050565b600081519050919050565b600082825260208201905092915050565b6000819050602082019050919050565b610160820160008201516139d2600085018261270a565b5060208201516139e56020850182612ebc565b5060408201516139f86040850182612917565b506060820151613a0c610100850182612790565b506080820151613a20610120850182612790565b5060a0820151613a34610140850182612a81565b50505050565b6000613a4683836139bb565b6101608301905092915050565b6000602082019050919050565b6000613a6b8261398f565b613a75818561399a565b9350613a80836139ab565b8060005b83811015613ab1578151613a988882613a3a565b9750613aa383613a53565b925050600181019050613a84565b5085935050505092915050565b60006040830160008301518482036000860152613adb828261391a565b91505060208301518482036020860152613af58282613a60565b9150508091505092915050565b600060a0830160008301518482036000860152613b1f8282612619565b91505060208301518482036020860152613b398282612619565b91505060408301518482036040860152613b538282612619565b91505060608301518482036060860152613b6d8282613abe565b91505060808301518482036080860152613b878282613abe565b9150508091505092915050565b60006020820190508181036000830152613bae8184613b02565b905092915050565b613bbf81612a75565b8114613bca57600080fd5b50565b600081359050613bdc81613bb6565b92915050565b600080600060608486031215613bfb57613bfa611d8c565b5b6000613c0986828701611df1565b9350506020613c1a868287016123f7565b9250506040613c2b86828701613bcd565b9150509250925092565b600061048083016000830151613c4e600086018261270a565b5060208301518482036020860152613c668282612735565b9150506040830151613c7b604086018261279f565b506060830151613c8e60608601826127e7565b506080830151613ca16080860182612790565b5060a0830151613cb460a08601826127f6565b5060c083015184820360c0860152613ccc82826128b9565b91505060e0830151613ce160e0860182612917565b50610100830151613cf66101a0860182612992565b50610120830151613d0b6102c0860182612992565b50610140830151613d206103e0860182612790565b50610160830151613d35610400860182612790565b50610180830151613d4a6104208601826127e7565b506101a0830151848203610440860152613d648282613425565b9150506101c0830151848203610460860152613d80828261372c565b9150508091505092915050565b60006020820190508181036000830152613da78184613c35565b905092915050565b613db8816127bb565b8114613dc357600080fd5b50565b600081359050613dd581613daf565b92915050565b600080600080600060a08688031215613df757613df6611d8c565b5b6000613e0588828901611df1565b9550506020613e1688828901611e1d565b9450506040613e2788828901611e1d565b9350506060613e3888828901611e53565b9250506080613e4988828901613dc6565b9150509295509295909350565b61016082016000820151613e6d600085018261270a565b506020820151613e806020850182612ebc565b506040820151613e936040850182612917565b506060820151613ea7610100850182612790565b506080820151613ebb610120850182612790565b5060a0820151613ecf610140850182612a81565b50505050565b600061016082019050613eeb6000830184613e56565b92915050565b613efa81611db6565b8114613f0557600080fd5b50565b600081519050613f1781613ef1565b92915050565b600060208284031215613f3357613f32611d8c565b5b6000613f4184828501613f08565b91505092915050565b613f5381611db6565b82525050565b613f628161276e565b82525050565b6000608082019050613f7d6000830187613f4a565b613f8a6020830186613f59565b613f976040830185613f59565b613fa46060830184613f59565b95945050505050565b6000602082019050613fc26000830184613f4a565b92915050565b7f4e487b7100000000000000000000000000000000000000000000000000000000600052603260045260246000fd5b7f4e487b7100000000000000000000000000000000000000000000000000000000600052601160045260246000fd5b600061403182611e32565b91507fffffffffffffffffffffffffffffffffffffffffffffffffffffffffffffffff820361406357614062613ff7565b5b600182019050919050565b6000614079826126e6565b9050919050565b6140898161406e565b82525050565b61409881611e32565b82525050565b600081519050919050565b600082825260208201905092915050565b6000819050602082019050919050565b6140d3816120d3565b82525050565b60006140e583836140ca565b60208301905092915050565b6000602082019050919050565b60006141098261409e565b61411381856140a9565b935061411e836140ba565b8060005b8381101561414f57815161413688826140d9565b9750614141836140f1565b925050600181019050614122565b5085935050505092915050565b600060a0820190506141716000830188614080565b61417e602083018761408f565b818103604083015261419081866140fe565b905061419f606083018561408f565b81810360808301526141b18184611f12565b90509695505050505050565b60006141d06141cb846121a5565b611fe7565b9050828152602081018484840111156141ec576141eb6121a0565b5b6141f7848285611ed7565b509392505050565b600082601f83011261421457614213611f82565b5b81516142248482602086016141bd565b91505092915050565b60006020828403121561424357614242611d8c565b5b600082015167ffffffffffffffff81111561426157614260611d91565b5b61426d848285016141ff565b91505092915050565b600067ffffffffffffffff82111561429157614290611f87565b5b61429a82611f01565b9050602081019050919050565b60006142ba6142b584614276565b611fe7565b9050828152602081018484840111156142d6576142d56121a0565b5b6142e1848285611ed7565b509392505050565b600082601f8301126142fe576142fd611f82565b5b815161430e8482602086016142a7565b91505092915050565b60006020828403121561432d5761432c611d8c565b5b600082015167ffffffffffffffff81111561434b5761434a611d91565b5b614357848285016142e9565b91505092915050565b60008151905061436f81611e3c565b92915050565b60006020828403121561438b5761438a612033565b5b6143956020611fe7565b905060006143a584828501614360565b60008301525092915050565b6000602082840312156143c7576143c6611d8c565b5b60006143d584828501614375565b91505092915050565b6000815190506143ed81613daf565b92915050565b60006020828403121561440957614408611d8c565b5b6000614417848285016143de565b91505092915050565b60006020828403121561443657614435611d8c565b5b600061444484828501614360565b91505092915050565b60008151905061445c8161207b565b92915050565b60006020828403121561447857614477611d8c565b5b60006144868482850161444d565b91505092915050565b600060c082840312156144a5576144a4612033565b5b6144af60c0611fe7565b905060006144bf8482850161444d565b60008301525060206144d38482850161444d565b60208301525060406144e784828501614360565b60408301525060606144fb84828501614360565b606083015250608061450f84828501614360565b60808301525060a061452384828501614360565b60a08301525092915050565b600060c0828403121561454557614544611d8c565b5b60006145538482850161448f565b91505092915050565b6000602082019050614571600083018461408f565b92915050565b6000610120828403121561458e5761458d612033565b5b614599610120611fe7565b905060006145a984828501614360565b60008301525060206145bd84828501614360565b60208301525060406145d184828501614360565b60408301525060606145e5848285016143de565b60608301525060806145f9848285016143de565b60808301525060a061460d84828501614360565b60a08301525060c06146218482850161444d565b60c08301525060e06146358482850161444d565b60e08301525061010061464a8482850161444d565b6101008301525092915050565b6000610120828403121561466e5761466d611d8c565b5b600061467c84828501614577565b91505092915050565b600061469082611db6565b9050919050565b6146a081614685565b81146146ab57600080fd5b50565b6000815190506146bd81614697565b92915050565b6000606082840312156146d9576146d8612033565b5b6146e36060611fe7565b905060006146f3848285016146ae565b600083015250602061470784828501614360565b602083015250604061471b84828501614360565b60408301525092915050565b60006060828403121561473d5761473c611d8c565b5b600061474b848285016146c3565b91505092915050565b61475d81612831565b82525050565b60006020820190506147786000830184614754565b92915050565b60008151905061478d81613bb6565b92915050565b600061018082840312156147aa576147a9612033565b5b6147b5610180611fe7565b905060006147c584828501614360565b60008301525060206147d984828501614360565b60208301525060406147ed84828501614360565b604083015250606061480184828501614360565b606083015250608061481584828501614360565b60808301525060a06148298482850161444d565b60a08301525060c061483d8482850161444d565b60c08301525060e061485184828501614360565b60e0830152506101006148668482850161477e565b6101008301525061012061487c8482850161477e565b610120830152506101406148928482850161477e565b610140830152506101606148a88482850161477e565b6101608301525092915050565b6000608082840312156148cb576148ca612033565b5b6148d56080611fe7565b905060006148e584828501614360565b60008301525060206148f984828501614360565b602083015250604061490d84828501614360565b604083015250606061492184828501614360565b60608301525092915050565b60006080828403121561494357614942612033565b5b61494d6080611fe7565b9050600061495d84828501614360565b600083015250602061497184828501614360565b602083015250604061498584828501614360565b604083015250606061499984828501614360565b60608301525092915050565b6000608082840312156149bb576149ba612033565b5b6149c56080611fe7565b905060006149d584828501614360565b60008301525060206149e984828501614360565b60208301525060406149fd84828501614360565b6040830152506060614a1184828501614360565b60608301525092915050565b600060608284031215614a3357614a32612033565b5b614a3d6060611fe7565b90506000614a4d84828501614360565b6000830152506020614a61848285016143de565b6020830152506040614a75848285016143de565b60408301525092915050565b60006103008284031215614a9857614a97612033565b5b614aa36101a0611fe7565b90506000614ab384828501614360565b6000830152506020614ac784828501614360565b6020830152506040614adb848285016148b5565b60408301525060c0614aef8482850161492d565b606083015250610140614b0484828501614360565b608083015250610160614b1984828501614360565b60a083015250610180614b2e84828501614360565b60c0830152506101a0614b43848285016149a5565b60e083015250610220614b5884828501614a1d565b61010083015250610280614b6e84828501614360565b610120830152506102a0614b8484828501614360565b610140830152506102c0614b9a8482850161444d565b610160830152506102e0614bb08482850161477e565b6101808301525092915050565b600060408284031215614bd357614bd2612033565b5b614bdd6040611fe7565b90506000614bed848285016143de565b6000830152506020614c01848285016143de565b60208301525092915050565b60006101408284031215614c2457614c23612033565b5b614c2f610120611fe7565b90506000614c3f8482850161444d565b6000830152506020614c538482850161444d565b6020830152506040614c6784828501614360565b6040830152506060614c7b84828501614360565b6060830152506080614c8f84828501614360565b60808301525060a0614ca384828501614360565b60a08301525060c0614cb7848285016143de565b60c08301525060e0614ccb848285016143de565b60e083015250610100614ce084828501614bbd565b6101008301525092915050565b600081519050614cfc81611e06565b92915050565b60006101808284031215614d1957614d18612033565b5b614d24610180611fe7565b90506000614d348482850161444d565b6000830152506020614d488482850161444d565b6020830152506040614d5c848285016143de565b6040830152506060614d7084828501614360565b6060830152506080614d8484828501614360565b60808301525060a0614d9884828501614360565b60a08301525060c0614dac84828501614360565b60c08301525060e0614dc084828501614360565b60e083015250610100614dd584828501614360565b61010083015250610120614deb8482850161444d565b61012083015250610140614e0184828501614360565b61014083015250610160614e1784828501614360565b6101608301525092915050565b600060808284031215614e3a57614e39612033565b5b614e446080611fe7565b90506000614e548482850161444d565b6000830152506020614e6884828501614360565b6020830152506040614e7c84828501614360565b6040830152506060614e9084828501614360565b60608301525092915050565b600067ffffffffffffffff821115614eb757614eb6611f87565b5b602082029050602081019050919050565b6000614edb614ed684614e9c565b611fe7565b90508083825260208201905060808402830185811115614efe57614efd61202e565b5b835b81811015614f275780614f138882614e24565b845260208401935050608081019050614f00565b5050509392505050565b600082601f830112614f4657614f45611f82565b5b8151614f56848260208601614ec8565b91505092915050565b600067ffffffffffffffff821115614f7a57614f79611f87565b5b602082029050602081019050919050565b600060208284031215614fa157614fa0612033565b5b614fab6020611fe7565b90506000614fbb848285016143de565b60008301525092915050565b60006101c08284031215614fde57614fdd612033565b5b614fe96101c0611fe7565b90506000614ff98482850161477e565b600083015250602061500d84828501614f8b565b602083015250604061502184828501614f8b565b604083015250606061503584828501614f8b565b606083015250608061504984828501614f8b565b60808301525060a061505d84828501614f8b565b60a08301525060c061507184828501614f8b565b60c08301525060e061508584828501614f8b565b60e08301525061010061509a84828501614f8b565b610100830152506101206150b084828501614f8b565b610120830152506101406150c684828501614f8b565b610140830152506101606150dc84828501614f8b565b610160830152506101806150f284828501614f8b565b610180830152506101a061510884828501614f8b565b6101a08301525092915050565b600061512861512384614f5f565b611fe7565b9050808382526020820190506101c0840283018581111561514c5761514b61202e565b5b835b8181101561517657806151618882614fc7565b8452602084019350506101c08101905061514e565b5050509392505050565b600082601f83011261519557615194611f82565b5b81516151a5848260208601615115565b91505092915050565b6000606082840312156151c4576151c3612033565b5b6151ce6060611fe7565b905060006151de8482850161444d565b60008301525060206151f2848285016143de565b60208301525060406152068482850161477e565b60408301525092915050565b6000610940828403121561522957615228612033565b5b615234610180611fe7565b90506000615244848285016146ae565b600083015250602061525884828501614793565b6020830152506101a061526d84828501614a81565b6040830152506104a061528284828501614c0d565b6060830152506105e061529784828501614ced565b6080830152506106006152ac84828501614d02565b60a0830152506107806152c184828501614e24565b60c0830152506108006152d684828501614e24565b60e08301525061088082015167ffffffffffffffff8111156152fb576152fa612038565b5b61530784828501614f31565b610100830152506108a082015167ffffffffffffffff81111561532d5761532c612038565b5b61533984828501615180565b610120830152506108c061534f848285016151ae565b610140830152506109206153658482850161444d565b6101608301525092915050565b60006020828403121561538857615387611d8c565b5b600082015167ffffffffffffffff8111156153a6576153a5611d91565b5b6153b284828501615212565b91505092915050565b60006040820190506153d06000830185614754565b6153dd6020830184613f4a565b9392505050565b6000608082840312156153fa576153f9612033565b5b6154046080611fe7565b905060006154148482850161444d565b60008301525060206154288482850161444d565b602083015250604061543c848285016143de565b604083015250606061545084828501614360565b60608301525092915050565b60006080828403121561547257615471612033565b5b61547c6080611fe7565b9050600061548c848285016143de565b60008301525060206154a084828501614360565b60208301525060406154b4848285016143de565b60408301525060606154c8848285016143de565b60608301525092915050565b600067ffffffffffffffff8211156154ef576154ee611f87565b5b602082029050602081019050919050565b600061551361550e846154d4565b611fe7565b905080838252602082019050602084028301858111156155365761553561202e565b5b835b8181101561555f578061554b88826143de565b845260208401935050602081019050615538565b5050509392505050565b600082601f83011261557e5761557d611f82565b5b815161558e848260208601615500565b91505092915050565b600061042082840312156155ae576155ad612033565b5b6155b9610140611fe7565b905060006155c9848285016146ae565b60008301525060206155dd84828501614ced565b60208301525060406155f1848285016153e4565b60408301525060c061560584828501614d02565b60608301525061024061561a84828501614e24565b6080830152506102c061562f84828501614e24565b60a0830152506103406156448482850161545c565b60c0830152506103c082015167ffffffffffffffff81111561566957615668612038565b5b61567584828501614f31565b60e0830152506103e082015167ffffffffffffffff81111561569a57615699612038565b5b6156a684828501615180565b6101008301525061040082015167ffffffffffffffff8111156156cc576156cb612038565b5b6156d884828501615569565b6101208301525092915050565b6000602082840312156156fb576156fa611d8c565b5b600082015167ffffffffffffffff81111561571957615718611d91565b5b61572584828501615597565b91505092915050565b600061573982611db6565b9050919050565b6157498161572e565b811461575457600080fd5b50565b60008151905061576681615740565b92915050565b60006020828403121561578257615781611d8c565b5b600061579084828501615757565b91505092915050565b60006040820190506157ae6000830185613f4a565b6157bb6020830184613f4a565b9392505050565b6000602082840312156157d8576157d7611d8c565b5b60006157e68482850161477e565b91505092915050565b60006040820190506158046000830185613f4a565b615811602083018461408f565b9392505050565b600061582382611e32565b915061582e83611e32565b925082820190508082111561584657615845613ff7565b5b92915050565b6000615857826127bb565b9150615862836127bb565b92508282019050828112156000831216838212600084121516171561588a57615889613ff7565b5b92915050565b615899816127bb565b82525050565b60006020820190506158b46000830184615890565b92915050565b60006158c582611e32565b91506158d083611e32565b92508282026158de81611e32565b915082820484148315176158f5576158f4613ff7565b5b5092915050565b7f4e487b7100000000000000000000000000000000000000000000000000000000600052601260045260246000fd5b600061593682611e32565b915061594183611e32565b925082615951576159506158fc565b5b82820490509291505056fea2646970667358221220f1fabab174ef413e53e3b66665fbb3571dbdbc9be821fb49306b046586a9947e64736f6c63430008130033",
  "linkReferences": {},
  "deployedLinkReferences": {}
}